:0400000033EF11F0D9
:10100000007021000000000000000000000000004F
:1010100000000000000000000000000000000000D0
:101020000000000000000000009E2282220000005C
:10103000004D6F6E69746F72205374617274005446
:10104000203A2000257500002B50800B346E2B5069
:101050002B243A6E2AAE2FEF08F031EF08F032EF72
:1010600008F03A803A50D8B438EF08F03AEF08F078
:101070004DEF08F03A28D8A440EF08F042EF08F00E
:101080004AEF08F0000E286E000E296E000E2A6E40
:10109000000E2B6E2A8E55EF08F0000E286E000E03
:1010A000296E000E2A6E000E2B6E2F50800B341A04
:1010B0002F502F24396E2EAE60EF08F062EF08F04B
:1010C00063EF08F039803950D8B469EF08F06BEF5E
:1010D00008F07EEF08F03928D8A471EF08F073EF1C
:1010E00008F07BEF08F0000E2C6E000E2D6E000E47
:1010F0002E6E000E2F6E2E8E86EF08F0000E2C6ED8
:10110000000E2D6E000E2E6E000E2F6E3950D8B4CC
:101110008CEF08F08EEF08F096EF08F03A50D8A464
:1011200094EF08F096EF08F0A0EF08F0000E286E9C
:10113000000E296E000E2A6E000E2B6E38EF0AF09C
:101140002E502802F3CF3FF0F4CF40F03F50356EE1
:10115000366A376A386A40503B6E3C6A3D6A3E6A7E
:101160002D502902F3CF3FF0F4CF40F03F50352609
:10117000000E36223722382240503B26000E3C22F9
:101180003D223E222C502A02F3CF3FF0F4CF40F014
:101190003F503526000E36223722382240503B265B
:1011A000000E3C223D223E2237C038F036C037F0D8
:1011B00035C036F0356A2C502902F3CF3FF0F4CF1A
:1011C00040F03F50352640503622000E3722000EA8
:1011D00038222D502802F3CF3FF0F4CF40F03F509B
:1011E000352640503622000E3722000E382237C0F6
:1011F00038F036C037F035C036F0356A2C5028024A
:10120000F3CF3FF0F4CF40F03F5035264050362228
:10121000000E3722000E38222E502902F3CF3FF065
:10122000F4CF40F03F503B2640503C22000E3D2280
:10123000000E3E222D502A02F3CF3FF0F4CF40F0B3
:101240003F503B2640503C22000E3D22000E3E22E5
:101250002E502A02F3CF3FF0F4CF40F03F50306ED3
:101260004050316E326A336A32C033F031C032F0EE
:1012700030C031F0306A30503B2631503C22325081
:101280003D2233503E2235C030F036C031F037C0F9
:1012900032F038C033F0190E53EF09F0D8903332E2
:1012A000323231323032E82E4EEF09F030503B26E8
:1012B00031503C2232503D2233503E2237C038F06C
:1012C00036C037F035C036F0356A39503AC030F0A4
:1012D000316A3026000E3122820E30243F6EFF0E1E
:1012E0003120406E89EF09F0D8903B363C363D36D0
:1012F0003E3638AE7EEF09F080EF09F081EF09F05D
:101300003B80D89035363636373638363F06D8A04B
:1013100040063DAE8EEF09F090EF09F074EF09F052
:10132000000E396E38AE97EF09F099EF09F0BDEF76
:1013300009F0FF0E3514306EFF0E3614316EFF0EBD
:101340003714326E7F0E3814336E30503110321035
:101350003310D8B4AEEF09F0B0EF09F0B4EF09F0F4
:10136000010E396EBDEF09F03BA0B9EF09F0BBEFFC
:1013700009F0BDEF09F0B0EF09F03950D8B4C3EF70
:1013800009F0C5EF09F0E9EF09F0010E3B26000E68
:101390003C223D223E223EA0D0EF09F0D2EF09F0E0
:1013A000E9EF09F03BC030F03CC031F03DC032F015
:1013B0003EC033F03334333232323132303230C027
:1013C0003BF031C03CF032C03DF033C03EF03F4A0C
:1013D000402A40BEF4EF09F0405008E13F28D8A071
:1013E000F4EF09F0F6EF09F000EF0AF0000E3B6EA3
:1013F000000E3C6E800E3D6E7F0E3E6E2EEF0AF0AC
:1014000040BE0DEF0AF0405006E13F04D8B00BEFAC
:101410000AF00DEF0AF019EF0AF0000E3B6E000E15
:101420003C6E000E3D6E000E3E6E000E346E2EEFD2
:101430000AF03FC03AF0FF0E3B16FF0E3C167F0E3F
:101440003D16000E3E163AA028EF0AF02AEF0AF0E9
:101450002BEF0AF03D8ED8903A303E6E34503E125B
:101460003BC028F03CC029F03DC02AF03EC02BF024
:1014700012001250800B1F6E12501224266E11AEF5
:1014800044EF0AF046EF0AF047EF0AF026802650B4
:10149000D8B44DEF0AF04FEF0AF064EF0AF02628B7
:1014A000D8A455EF0AF057EF0AF05FEF0AF0000EEC
:1014B0000F6E000E106E000E116E000E126E118E69
:1014C000000E126E6CEF0AF0000E0F6E000E106E22
:1014D000000E116E000E126E1650800B1F1A165061
:1014E0001624276E15AE77EF0AF079EF0AF07AEF3F
:1014F0000AF027802750D8B480EF0AF082EF0AF074
:1015000097EF0AF02728D8A488EF0AF08AEF0AF0AC
:1015100092EF0AF0000E136E000E146E000E156EA0
:10152000000E166E158E000E166E9FEF0AF0000E5E
:10153000136E000E146E000E156E000E166E135014
:10154000141015101610D8A4A8EF0AF0AAEF0AF08C
:10155000C2EF0AF0000E0F6E000E106E000E116E3C
:10156000000E126E800E11127F0E12121F501212F8
:101570000FC00FF010C010F011C011F012C012F027
:1015800005EF0CF02650D8A4C8EF0AF0CAEF0AF015
:10159000D4EF0AF0000E0F6E000E106E000E116EEA
:1015A000000E126E05EF0CF0275026C017F0186AD7
:1015B000175E000E185A7F0E1724206E000E18209A
:1015C000216E0FC01BF010C01CF011C01DF012C026
:1015D0001EF0000E0F6E000E106E000E116E000E4B
:1015E000126E000E226E000E236E000E246E000E90
:1015F000256E000E276E35EF0BF02750D8B403EFA1
:101600000BF005EF0BF01CEF0BF0D8901B361C36DF
:101610001D361E36D8900F3610361136123625AECE
:1016200014EF0BF016EF0BF017EF0BF00F80D890C4
:10163000223623362436253613501B5C14501C5892
:1016400015501D5816501E58D8A029EF0BF02BEF3F
:101650000BF034EF0BF0258C13501B5E14501C5A0A
:1016600015501D5A16501E5A272A190E27643BEF93
:101670000BF03DEF0BF0FDEF0AF01B501C101D109E
:101680001E10D8B446EF0BF048EF0BF060EF0BF0F4
:10169000228060EF0BF0D8900F36103611361236DC
:1016A00025AE55EF0BF057EF0BF058EF0BF00F8016
:1016B000D89022362336243625362006D8A0210697
:1016C00011AE65EF0BF067EF0BF04BEF0BF0000E78
:1016D000276E25AE6EEF0BF070EF0BF094EF0BF072
:1016E000FF0E2214176EFF0E2314186EFF0E241423
:1016F000196E7F0E25141A6E1750181019101A1033
:10170000D8B485EF0BF087EF0BF08BEF0BF0010EE9
:10171000276E94EF0BF00FA090EF0BF092EF0BF011
:1017200094EF0BF087EF0BF02750D8B49AEF0BF043
:101730009CEF0BF0C0EF0BF0010E0F26000E1022F5
:101740001122122212A0A7EF0BF0A9EF0BF0C0EFAD
:101750000BF00FC017F010C018F011C019F012C034
:101760001AF01A341A3219321832173217C00FF021
:1017700018C010F019C011F01AC012F0204A212A26
:1017800021BECBEF0BF0215008E12028D8A0CBEFF1
:101790000BF0CDEF0BF0D8EF0BF0000E216E2068B0
:1017A000000E0F6E000E106E000E116E000E126E07
:1017B00021BEE5EF0BF0215006E12004D8B0E3EFA5
:1017C0000BF0E5EF0BF0F3EF0BF0000E216E000EC7
:1017D000206E000E0F6E000E106E000E116E000EC9
:1017E000126E000E1F6E20C026F026A0FAEF0BF03E
:1017F000FCEF0BF0FFEF0BF0118E00EF0CF0119EE1
:10180000D8902630126EB6EF0AF01200096E095019
:10181000D8B40DEF0CF00FEF0CF031EF0CF004BE6C
:1018200016EF0CF014EF0CF031EF0CF001C005F0E6
:1018300002C006F003C007F004C008F0051E061E33
:10184000071E081E052A000E06220722082205C0D0
:101850000BF006C00CF007C00DF008C00EF039EF19
:101860000CF001C00BF002C00CF003C00DF004C07E
:101870000EF00150021003100410D8A442EF0CF037
:1018800044EF0CF04EEF0CF0000E016E000E026EF5
:10189000000E036E000E046EDFEF0CF0960E0A6E63
:1018A00058EF0CF00A2AD8900E320D320C320B325F
:1018B000000E0B14056E000E0C14066E000E0D14B7
:1018C000076EFE0E0E14086E055006100710081065
:1018D000D8A46DEF0CF06FEF0CF052EF0CF07DEF31
:1018E0000CF00A2A010E0B26000E0C220D220E22ED
:1018F000D8900E320D320C320B32000E0B14056EE6
:10190000000E0C14066E000E0D14076EFF0E0E1462
:10191000086E0550061007100810D8A492EF0CF0BE
:1019200094EF0CF071EF0CF09CEF0CF00A06D890DD
:101930000B360C360D360E360DBEA1EF0CF0A3EFB4
:101940000CF0ABEF0CF0020E0A60A9EF0CF0ABEF5D
:101950000CF096EF0CF00AB0B0EF0CF0B2EF0CF018
:10196000B3EF0CF00D9ED8900A320AC005F0066A5B
:10197000076A086A05C008F0076A066A056A055022
:101980000B1206500C1207500D1208500E1209507F
:10199000D8B4CDEF0CF0CFEF0CF0D7EF0CF004BEC5
:1019A000D6EF0CF0D4EF0CF0D7EF0CF00E8E0BC08E
:1019B00001F00CC002F00DC003F00EC004F01200E4
:1019C0000A50D96EDA6ADFCFF6FF100EF76EF86AAA
:1019D0000800F550250AD8A4F0EF0CF0F2EF0CF057
:1019E00087EF0DF00A50D96EDA6ADF2A000E000187
:1019F000816F000E806F80C05EF0826983690A503B
:101A0000D96EDA6ADF50116E11C0F6FF100EF76E54
:101A1000F86A0800F550750AD8A411EF0DF013EF1D
:101A20000DF081EF0DF00B50D96EDA6A020EDF2651
:101A3000DF5CD96EDA6ADECF0DF0DECF0EF00A5031
:101A4000D96EDA6A1128DF6E74EF0DF0200E126E77
:101A500012061250600FD96EDA6A0DC001F00EC086
:101A600002F0000E046E0A0E036E13EC10F001502B
:101A7000300FDF6E0DC001F00EC002F0000E046EDC
:101A80000A0E036E6BEC0FF001C00DF002C00EF0F9
:101A90000D500E10D8B44FEF0DF051EF0DF069EF6F
:101AA0000DF01250D8A457EF0DF059EF0DF028EFBC
:101AB0000DF069EF0DF01250600FD96EDA6ADF5049
:101AC0000C6E0C50016E026A09C003F0C2EC0EF0FD
:101AD000122A200E1218D8A470EF0DF072EF0DF03C
:101AE0005BEF0DF099EF0DF011C0F6FF100EF76EE1
:101AF000F86A0800F550750AD8B426EF0DF081EFAA
:101B00000DF00A50D96EDA6ADF2A99EF0DF00A500B
:101B1000D96EDA6ADFCFF6FF100EF76EF86A0800AA
:101B2000F550016E026A09C003F0C2EC0EF081EFBD
:101B30000DF0120076EC11F017EC0FF0310E066E7E
:101B40000650D8A4100E076E45EC10F0090E4C6E2E
:101B50001E0E4B6EE40EE82EFED74B2EFCD74C2EFD
:101B6000FAD700F000F0010EA5EC0FF0000E76ECB5
:101B700010F001C054F002C055F054C04BF055C0F5
:101B80004CF0060E4D6ED8904C324B324D2EC3EFBA
:101B90000DF04BC056F04CC057F0000E2C6E000EEE
:101BA0002D6EFA0E2E6E430E2F6E000E136EC00EAB
:101BB000146E7F0E156E440E166E56C001F057C09F
:101BC00002F0036A046A000E06EC0CF001C00FF08C
:101BD00002C010F003C011F004C012F039EC0AF09A
:101BE0000FC028F010C029F011C02AF012C02BF04D
:101BF00024EC08F028C041F029C042F02AC043F08C
:101C00002BC044F03FEC0EF041C058F042C059F0F8
:101C10004E0E176E440E186E58C019F059C01AF0C7
:101C2000D4EC10F03F0E066E0650D8A4100E076ECE
:101C300045EC10F04E0E066E076A45EC10F0150EDE
:101C40004C6E4B0E4B6EBE0EE82EFED74B2EFCD7C5
:101C50004C2EFAD700F000F0010EA5EC0FF0030EA9
:101C60004C6E080E4B6E770EE82EFED74B2EFCD72F
:101C70004C2EFAD70000B6EF0DF000EF00F0433421
:101C800044344A6E4A50D8A448EF0EF04AEF0EF0A2
:101C900054EF0EF0000E416E000E426E000E436EC9
:101CA000000E446EC1EF0EF041C045F042C046F058
:101CB00043C047F044C048F0200E64EF0EF0D890C7
:101CC0004832473246324532E82E5FEF0EF045503B
:101CD000496E438EFF0E4116FF0E4216FF0E43164D
:101CE000000E4416960E4A5E4ABE7BEF0EF079EF68
:101CF0000EF091EF0EF04A50800A970FD8B083EFA4
:101D00000EF085EF0EF087EF0EF04AEF0EF0D89050
:101D100044324332423241324A3E87EF0EF0A9EF5D
:101D20000EF01F0E4A6497EF0EF099EF0EF0A1EF40
:101D30000EF04AEF0EF0D890413642364336443624
:101D40004A064A50D8A4A7EF0EF0A9EF0EF09BEF79
:101D50000EF04950D8B4AFEF0EF0B1EF0EF0B9EF7E
:101D60000EF0441E431E421E416C000E42224322CE
:101D7000442241C041F042C042F043C043F044C05D
:101D800044F012000350D8B4C8EF0EF0CAEF0EF0C2
:101D9000D2EF0EF00350D8A4D0EF0EF0D2EF0EF039
:101DA000D7EF0EF00150A7EC11F016EF0FF0035033
:101DB000D96EDA6A0A0ED926DE50DE10D8B4E3EF07
:101DC0000EF0E5EF0EF0FEEF0EF00350D96EDA6A7A
:101DD0000A0ED9260350E16EE26A030EE126DE50B8
:101DE000E65CE650800A086EDE50800A0858D8B0DB
:101DF000FCEF0EF0FEEF0EF016EF0FF00350D96E71
:101E0000DA6A030ED926DF50046E0350D96EDA6AFF
:101E1000DF500424D96EDA6A01C0DFFF0350D96EA7
:101E2000DA6A030ED926DE2A000EDD22120020EC2B
:101E300011F0680E066EE40EE82EFED7062EFCD7D3
:101E400000F000F0330EA5EC0FF01A0E066EF80E3F
:101E5000E82EFED7062EFCD700F000F0320EA5ECDF
:101E60000FF01A0E066EF80EE82EFED7062EFCD7DF
:101E700000F000F0280EA5EC0FF01A0E066EF80E1A
:101E8000E82EFED7062EFCD700F000F00C0EA5ECD5
:101E90000FF01A0E066EF80EE82EFED7062EFCD7AF
:101EA00000F000F0060EA5EC0FF01A0E066EF80E0C
:101EB000E82EFED7062EFCD700F000F0010EA5ECB0
:101EC0000FF01A0E066EF80EE82EFED7062EFCD77F
:101ED00000F000F01200000E066E000E056E0350BA
:101EE0000410D8B476EF0FF078EF0FF0A0EF0FF0FA
:101EF000010E076E80EF0FF0D89003360436072AE4
:101F000004AE85EF0FF087EF0FF07CEF0FF0D89065
:101F1000053606360350015C04500258D8A093EFF2
:101F20000FF095EF0FF09AEF0FF00350015E0450A1
:101F3000025A0580D89004320332072E87EF0FF043
:101F400005C001F006C002F01200056E0550F00B4E
:101F50000409026E090E5DEC11F000F000F000F0D3
:101F600000F00550F00B026E090E5DEC11F00B0E47
:101F7000046E620EE82EFED7042EFCD700F000F0AF
:101F80000538F00BF00B0409026E090E5DEC11F040
:101F900000F000F000F000F00538F00BF00B026EDE
:101FA000090E5DEC11F00B0E046E620EE82EFED7EA
:101FB000042EFCD700F000F01200056E0550F00B67
:101FC0000509026E090E5DEC11F000F000F000F062
:101FD00000F00550F00B0109026E090E5DEC11F0E6
:101FE000A00E00F000F0E82EFCD70538F00BF00B47
:101FF0000509026E090E5DEC11F000F000F000F032
:1020000000F00538F00BF00B0109026E090E5DECD3
:1020100011F00B0E046E620EE82EFED7042EFCD7D4
:1020200000F000F0120003500410D8B41AEF10F0C2
:102030001CEF10F040EF10F0010E056E24EF10F0D1
:10204000D89003360436052A04AE29EF10F02BEFA2
:1020500010F020EF10F00350015C04500258D8A09B
:1020600034EF10F036EF10F03AEF10F00350015E4D
:102070000450025AD89004320332052E2BEF10F090
:1020800001C001F002C002F012005CEF10F006C0C7
:10209000F6FF07C0F7FF000EF86E0F0EF76403D0CF
:1020A0000800F55005D0F6CFE9FFF7CFEAFFEF5073
:1020B000DDEC0FF0064A072A06C0F6FF07C0F7FF5F
:1020C000000EF86E0F0EF76403D00800F55005D02F
:1020D000F6CFE9FFF7CFEAFFEF500009D8A473EF7E
:1020E00010F075EF10F047EF10F01200056E05C00C
:1020F00003F003460346C2500318C30B0318C26E15
:10210000C2800A0EE82EFED700F000F0C282C2B2F2
:102110008CEF10F08EEF10F087EF10F0C450046ECB
:10212000036AC3500324016E000E0420026E1200E5
:1021300014C016F0A4EF10F013C009F0160E0A6ECA
:1021400015C00BF0E0EC0CF016C0F6FF100EF76EA9
:10215000F86A0800F5500009D8A4B1EF10F0B3EF09
:1021600010F09CEF10F0000E146E000E136E1200B3
:10217000480EB86E900EAB6E260EAC6EA00EAF6E13
:10218000010EB06E000E016E000E026E4FEC11F0EB
:10219000000E016E000E026E41EC11F0000E000107
:1021A000896F000E886F1200190E1B6E17C01CF08D
:1021B000000E206E000E1F6E000E276E000E266EA3
:1021C0001C0E136E18C014F01B0E156E98EC10F058
:1021D00017501F24D96EDA6ADF6A1200D09EF2927D
:1021E000F18C000E016E000E026E9DEC11F0F0906D
:1021F000F18A000E016E000E026E98EC11F0F09262
:10220000F188000E016E000E026E93EC11F01200C8
:10221000000E896E000E8A6E000E8B6E000E8C6EA4
:10222000000E8D6E92689368BF0E946E9568070ECF
:10223000966E1F0E7F6E7C68000E7D6EF286120019
:1022400095908CEC11F0FF0E026E0A0E5DEC11F011
:10225000000E026E000E5DEC11F0FF0E026E060E17
:102260005DEC11F0120000EE60F02C0EEE6AE80654
:10227000FDE15E6A5D6A5C6A5B6A5A6A00019AEF18
:102280000DF001500210D8B448EF11F04AEF11F0F0
:102290004EEF11F001C084F002C085F01200015031
:1022A0000210D8B456EF11F058EF11F05CEF11F0B6
:1022B00001C086F002C087F01200036E8C90400EC1
:1022C00081EC11F0035081EC11F0025081EC11F01F
:1022D0008C801200000EC16E000EC06E000EC36E28
:1022E000000EC46E030EC26E9E9C1200A2EC11F092
:1022F00008EC11F06AEC11F0B8EC10F0EEEC10F014
:102300001200016E01C0C9FFC7A089EF11F08BEF69
:1023100011F084EF11F012009496949A200EC66E7C
:10232000000EC76E120001C08AF002C08BF01200CE
:1023300001C05AF002C05BF0120001C05CF002C0A4
:102340005DF01200700ED36E000E9B6E1200120034
:020000040030CA
:0E000000FF081F1EFF8B85FF0FC00FE00F4093
:00000001FF
