:040000009CEF09F078
:1010000000CA110000000000000000000000000005
:1010100000000000000000000000000000000000D0
:10102000000000000000000000BE12A2120000003C
:0D103000007A656269206D616E67610000E5
:10103E0032EC09F01A0E126EF80EE82EFED7122EB2
:10104E00FCD700F000F0330E9BEC08F0070E126E8A
:10105E007D0EE82EFED7122EFCD70000320E9BEC32
:10106E0008F0070E126E7D0EE82EFED7122EFCD75C
:10107E000000280E9BEC08F0070E126E7D0EE82E77
:10108E00FED7122EFCD700000C0E9BEC08F0070EBC
:10109E00126E7D0EE82EFED7122EFCD70000060E25
:1010AE009BEC08F0070E126E7D0EE82EFED7122E68
:1010BE00FCD70000010E9BEC08F0070E126E7D0EA1
:1010CE00E82EFED7122EFCD700001200116E115022
:1010DE00F00B05090E6E090E6DEC09F000001150B3
:1010EE00F00B01090E6E090E6DEC09F0420EE82EA2
:1010FE00FED700F000F01138F00BF00B05090E6E64
:10110E00090E6DEC09F000001138F00BF00B01091F
:10111E000E6E090E6DEC09F0030E106E980EE82E91
:10112E00FED7102EFCD71200116E1150F00B0409D1
:10113E000E6E090E6DEC09F000001150F00B0E6EE4
:10114E00090E6DEC09F0030E106E980EE82EFED708
:10115E00102EFCD71138F00BF00B04090E6E090E91
:10116E006DEC09F000001138F00BF00B0E6E090E4D
:10117E006DEC09F0030E106E980EE82EFED7102EB1
:10118E00FCD71200D5EF08F012C0F6FF100EF76E66
:10119E00F86A0800F5506DEC08F0122A12C0F6FF3E
:1011AE00100EF76EF86A0800F5500009D8A4E2EFA9
:1011BE0008F0E4EF08F0CBEF08F01200480EB86E1E
:1011CE00900EAB6E260EAC6EA00EAF6E010EB06E14
:1011DE00000E0D6E000E0E6E5FEC09F0000E0D6E21
:1011EE00000E0E6E51EC09F0000E066E000E056E2E
:1011FE001200D09EF292F18C000E0D6E000E0E6E4D
:10120E00B6EC09F0F090F18A000E0D6E000E0E6E27
:10121E00B1EC09F0F092F188000E0D6E000E0E6E1C
:10122E00ACEC09F01200000E896E000E8A6E000EF4
:10123E008B6E000E8C6E000E8D6E92689368BF0ED4
:10124E00946E9568070E966E1F0E7F6E7C68000E6C
:10125E007D6EF28612009590FF0E0E6E0A0E6DECEC
:10126E0009F0000E0E6E000E6DEC09F0FF0E0E6E04
:10127E00060E6DEC09F0120086EC09F0A5EC09F0F3
:10128E001FEC08F0310E126EC9EC08F04DEF09F0AC
:10129E0000EF00F00D500E10D8B458EF09F05AEFD1
:1012AE0009F05EEF09F00DC001F00EC002F0120061
:1012BE000D500E10D8B466EF09F068EF09F06CEF20
:1012CE0009F00DC003F00EC004F012000F6E8C90EA
:1012DE00400E91EC09F00F5091EC09F00E5091EC8C
:1012EE0009F08C801200000EC16E000EC06E000E52
:1012FE00C36E000EC46E030EC26E9E9C1200BBEC3B
:10130E0009F01AEC09F07AEC09F0E5EC08F000ECC3
:10131E0009F012000D6E0DC0C9FFC7A099EF09F0BC
:10132E009BEF09F094EF09F0120000EE01F00C0EA5
:10133E00EE6AE806FDE1000143EF09F09496949AF7
:10134E00200EC66E000EC76E12000DC007F00EC046
:10135E0008F012000DC009F00EC00AF012000DC008
:10136E000BF00EC00CF01200700ED36E000E9B6EC2
:02137E0012005B
:020000040030CA
:0E000000FF081F1EFF8B85FF0FC00FE00F4093
:00000001FF
