:0400000039EF00F0E4
:100008005E82FACF60F0FBCF61F0E1CF62F0E2CF21
:1000180063F0D9CF64F0DACF65F0F3CF66F0F4CFB0
:1000280067F0F6CF68F0F7CF69F0F8CF6AF0F5CF50
:100038006BF0DCEC18F06BC0F5FF6AC0F8FF69C024
:10004800F7FF68C0F6FF67C0F4FF66C0F3FF65C03E
:10005800DAFF64C0D9FF63C0E2FF62C0E1FF61C09C
:0E006800FBFF60C0FAFF5E92110026EF1AF057
:1010000000063300000000823500000000000000F0
:1010100000000000000000000000000000000000D0
:10102000000000000000000000B234943400000012
:10103000004D6F6E69746F72205374617274005446
:10104000656D703A2025750D0A0042504D203A20FA
:101050000054203A20002575000000019651800BB5
:101060009F6F96519625A56F95AF39EF08F03BEF2E
:1010700008F03CEF08F0A581A551D8B442EF08F084
:1010800044EF08F057EF08F0A529D8A44AEF08F07C
:101090004CEF08F054EF08F0000E936F000E946FC1
:1010A000000E956F000E966F958F5FEF08F0000EA3
:1010B000936F000E946F000E956F000E966F9A510D
:1010C000800B9F1B9A519A25A06F99AF6AEF08F089
:1010D0006CEF08F06DEF08F0A081A051D8B473EF69
:1010E00008F075EF08F088EF08F0A029D8A47BEF8E
:1010F00008F07DEF08F085EF08F0000E976F000E06
:10110000986F000E996F000E9A6F998F90EF08F00C
:10111000000E976F000E986F000E996F000E9A6F79
:10112000A051D8B496EF08F098EF08F0A0EF08F0BF
:10113000A551D8A49EEF08F0A0EF08F0AAEF08F0A0
:10114000000E936F000E946F000E956F000E966F59
:1011500042EF0AF099519303F3CFAAF0F4CFABF02A
:10116000AA51A16FA26BA36BA46BAB51A66FA76B27
:10117000A86BA96B98519403F3CFAAF0F4CFABF00E
:10118000AA51A127000EA223A323A423AB51A62773
:10119000000EA723A823A92397519503F3CFAAF004
:1011A000F4CFABF0AA51A127000EA223A323A423BE
:1011B000AB51A627000EA723A823A923A3C0A4F000
:1011C000A2C0A3F0A1C0A2F0A16B97519403F3CFEA
:1011D000AAF0F4CFABF0AA51A127AB51A223000E85
:1011E000A323000EA42398519303F3CFAAF0F4CFC6
:1011F000ABF0AA51A127AB51A223000EA323000EEE
:10120000A423A3C0A4F0A2C0A3F0A1C0A2F0A16B2C
:1012100097519303F3CFAAF0F4CFABF0AA51A127D3
:10122000AB51A223000EA323000EA42399519403D3
:10123000F3CFAAF0F4CFABF0AA51A627AB51A72366
:10124000000EA823000EA92398519503F3CFAAF00E
:10125000F4CFABF0AA51A627AB51A723000EA823C9
:10126000000EA92399519503F3CFAAF0F4CFABF068
:10127000AA519B6FAB519C6F9D6B9E6B9DC09EF066
:101280009CC09DF09BC09CF09B6B9B51A6279C51E2
:10129000A7239D51A8239E51A923A1C09BF0A2C0C2
:1012A0009CF0A3C09DF0A4C09EF0190E5DEF09F064
:1012B000D8909E339D339C339B33E82E58EF09F032
:1012C0009B51A6279C51A7239D51A8239E51A9233A
:1012D000A3C0A4F0A2C0A3F0A1C0A2F0A16BA05132
:1012E000A5C09BF09C6B9B27000E9C23820E9B2528
:1012F000AA6FFF0E9C21AB6F93EF09F0D890A63731
:10130000A737A837A937A4AF88EF09F08AEF09F00B
:101310008BEF09F0A681D890A137A237A337A43765
:10132000AA07D8A0AB07A8AF98EF09F09AEF09F089
:101330007EEF09F0000EA06FA4AFA1EF09F0A3EFBC
:1013400009F0C7EF09F0FF0EA1159B6FFF0EA21564
:101350009C6FFF0EA3159D6F7F0EA4159E6F9B5172
:101360009C119D119E11D8B4B8EF09F0BAEF09F0A5
:10137000BEEF09F0010EA06FC7EF09F0A6A1C3EF01
:1013800009F0C5EF09F0C7EF09F0BAEF09F0A05175
:10139000D8B4CDEF09F0CFEF09F0F3EF09F0010E6B
:1013A000A627000EA723A823A923A9A1DAEF09F0F5
:1013B000DCEF09F0F3EF09F0A6C09BF0A7C09CF0AA
:1013C000A8C09DF0A9C09EF09E359E339D339C33EE
:1013D0009B339BC0A6F09CC0A7F09DC0A8F09EC008
:1013E000A9F0AA4BAB2BABBFFEEF09F0AB5108E164
:1013F000AA29D8A0FEEF09F000EF0AF00AEF0AF0E0
:10140000000EA66F000EA76F800EA86F7F0EA96F4B
:1014100038EF0AF0ABBF17EF0AF0AB5106E1AA05AF
:10142000D8B015EF0AF017EF0AF023EF0AF0000E1C
:10143000A66F000EA76F000EA86F000EA96F000E1A
:101440009F6F38EF0AF0AAC0A5F0FF0EA617FF0E97
:10145000A7177F0EA817000EA917A5A132EF0AF053
:1014600034EF0AF035EF0AF0A88FD890A531A96FB4
:101470009F51A913A6C093F0A7C094F0A8C095F0FF
:10148000A9C096F012002B50800B346E2B502B24E9
:101490003A6E2AAE4EEF0AF050EF0AF051EF0AF022
:1014A0003A803A50D8B457EF0AF059EF0AF06CEF8F
:1014B0000AF03A28D8A45FEF0AF061EF0AF069EF6A
:1014C0000AF0000E286E000E296E000E2A6E000E25
:1014D0002B6E2A8E74EF0AF0000E286E000E296E15
:1014E000000E2A6E000E2B6E2F50800B341A2F50D8
:1014F0002F24396E2EAE7FEF0AF081EF0AF082EFD3
:101500000AF039803950D8B488EF0AF08AEF0AF02F
:101510009DEF0AF03928D8A490EF0AF092EF0AF074
:101520009AEF0AF0000E2C6E000E2D6E000E2E6E3D
:10153000000E2F6E2E8EA5EF0AF0000E2C6E000E00
:101540002D6E000E2E6E000E2F6E3950D8B4ABEFFC
:101550000AF0ADEF0AF0B5EF0AF03A50D8A4B3EFB5
:101560000AF0B5EF0AF0BFEF0AF0000E286E000E89
:10157000296E000E2A6E000E2B6E57EF0CF02E50C7
:101580002802F3CF3FF0F4CF40F03F50356E366A7B
:10159000376A386A40503B6E3C6A3D6A3E6A2D505D
:1015A0002902F3CF3FF0F4CF40F03F503526000E34
:1015B00036223722382240503B26000E3C223D2264
:1015C0003E222C502A02F3CF3FF0F4CF40F03F50A0
:1015D0003526000E36223722382240503B26000E98
:1015E0003C223D223E2237C038F036C037F035C0AD
:1015F00036F0356A2C502902F3CF3FF0F4CF40F09B
:101600003F50352640503622000E3722000E382239
:101610002D502802F3CF3FF0F4CF40F03F50352655
:1016200040503622000E3722000E382237C038F0E4
:1016300036C037F035C036F0356A2C502802F3CF6B
:101640003FF0F4CF40F03F50352640503622000E98
:101650003722000E38222E502902F3CF3FF0F4CF6C
:1016600040F03F503B2640503C22000E3D22000EF1
:101670003E222D502A02F3CF3FF0F4CF40F03F50EE
:101680003B2640503C22000E3D22000E3E222E50B2
:101690002A02F3CF3FF0F4CF40F03F50306E40507D
:1016A000316E326A336A32C033F031C032F030C04A
:1016B00031F0306A30503B2631503C2232503D22CE
:1016C00033503E2235C030F036C031F037C032F0F2
:1016D00038C033F0190E72EF0BF0D890333232323B
:1016E00031323032E82E6DEF0BF030503B26315066
:1016F0003C2232503D2233503E2237C038F036C0B3
:1017000037F035C036F0356A39503AC030F0316ABA
:101710003026000E3122820E30243F6EFF0E312023
:10172000406EA8EF0BF0D8903B363C363D363E3647
:1017300038AE9DEF0BF09FEF0BF0A0EF0BF03B806E
:10174000D89035363636373638363F06D8A040067C
:101750003DAEADEF0BF0AFEF0BF093EF0BF0000EE3
:10176000396E38AEB6EF0BF0B8EF0BF0DCEF0BF0E4
:10177000FF0E3514306EFF0E3614316EFF0E371427
:10178000326E7F0E3814336E3050311032103310F9
:10179000D8B4CDEF0BF0CFEF0BF0D3EF0BF0010E81
:1017A000396EDCEF0BF03BA0D8EF0BF0DAEF0BF06B
:1017B000DCEF0BF0CFEF0BF03950D8B4E2EF0BF0C9
:1017C000E4EF0BF008EF0CF0010E3B26000E3C227C
:1017D0003D223E223EA0EFEF0BF0F1EF0BF008EFC1
:1017E0000CF03BC030F03CC031F03DC032F03EC0A8
:1017F00033F03334333232323132303230C03BF0B6
:1018000031C03CF032C03DF033C03EF03F4A402A88
:1018100040BE13EF0CF0405008E13F28D8A013EF72
:101820000CF015EF0CF01FEF0CF0000E3B6E000EED
:101830003C6E800E3D6E7F0E3E6E4DEF0CF040BE56
:101840002CEF0CF0405006E13F04D8B02AEF0CF02A
:101850002CEF0CF038EF0CF0000E3B6E000E3C6EDF
:10186000000E3D6E000E3E6E000E346E4DEF0CF01D
:101870003FC03AF0FF0E3B16FF0E3C167F0E3D16A2
:10188000000E3E163AA047EF0CF049EF0CF04AEF7D
:101890000CF03D8ED8903A303E6E34503E123BC034
:1018A00028F03CC029F03DC02AF03EC02BF01200C9
:1018B00000017D51800B8A6F7D517D25916F7CAF3A
:1018C00064EF0CF066EF0CF067EF0CF09181915132
:1018D000D8B46DEF0CF06FEF0CF084EF0CF09129A1
:1018E000D8A475EF0CF077EF0CF07FEF0CF0000E42
:1018F0007A6F000E7B6F000E7C6F000E7D6F7C8F09
:10190000000E7D6F8CEF0CF0000E7A6F000E7B6F77
:10191000000E7C6F000E7D6F8151800B8A1B815100
:101920008125926F80AF97EF0CF099EF0CF09AEF52
:101930000CF092819251D8B4A0EF0CF0A2EF0CF011
:10194000B7EF0CF09229D8A4A8EF0CF0AAEF0CF096
:10195000B2EF0CF0000E7E6F000E7F6F000E806FF6
:10196000000E816F808F000E816FBFEF0CF0000EB4
:101970007E6F000E7F6F000E806F000E816F7E51B4
:101980007F1180118111D8A4C8EF0CF0CAEF0CF0C0
:10199000E2EF0CF0000E7A6F000E7B6F000E7C6F92
:1019A000000E7D6F800E7C137F0E7D138A517D1398
:1019B0007AC07AF07BC07BF07CC07CF07DC07DF08B
:1019C00025EF0EF09151D8A4E8EF0CF0EAEF0CF0FF
:1019D000F4EF0CF0000E7A6F000E7B6F000E7C6F40
:1019E000000E7D6F25EF0EF0925191C082F0836B57
:1019F000825F000E835B7F0E82258B6F000E83213A
:101A00008C6F7AC086F07BC087F07CC088F07DC088
:101A100089F0000E7A6F000E7B6F000E7C6F000E57
:101A20007D6F000E8D6F000E8E6F000E8F6F000E9B
:101A3000906F000E926F55EF0DF09251D8B423EFD6
:101A40000DF025EF0DF03CEF0DF0D890863787377D
:101A500088378937D8907A377B377C377D3790AF96
:101A600034EF0DF036EF0DF037EF0DF07A81D890AE
:101A70008D378E378F3790377E51865D7F518759EE
:101A80008051885981518959D8A049EF0DF04BEF09
:101A90000DF054EF0DF0908D7E51865F7F51875B86
:101AA0008051885B8151895B922B190E92655BEFA7
:101AB0000DF05DEF0DF01DEF0DF0865187118811CF
:101AC0008911D8B466EF0DF068EF0DF080EF0DF0DE
:101AD0008D8180EF0DF0D8907A377B377C377D375A
:101AE00090AF75EF0DF077EF0DF078EF0DF07A8194
:101AF000D8908D378E378F3790378B07D8A08C07CB
:101B00007CAF85EF0DF087EF0DF06BEF0DF0000E61
:101B1000926F90AF8EEF0DF090EF0DF0B4EF0DF0EF
:101B2000FF0E8D15826FFF0E8E15836FFF0E8F15C2
:101B3000846F7F0E9015856F8251831184118511FA
:101B4000D8B4A5EF0DF0A7EF0DF0ABEF0DF0010E3F
:101B5000926FB4EF0DF07AA1B0EF0DF0B2EF0DF08F
:101B6000B4EF0DF0A7EF0DF09251D8B4BAEF0DF02D
:101B7000BCEF0DF0E0EF0DF0010E7A27000E7B2395
:101B80007C237D237DA1C7EF0DF0C9EF0DF0E0EFC1
:101B90000DF07AC082F07BC083F07CC084F07DC001
:101BA00085F08535853384338333823382C07AF080
:101BB00083C07BF084C07CF085C07DF08B4B8C2B88
:101BC0008CBFEBEF0DF08C5108E18B29D8A0EBEF27
:101BD0000DF0EDEF0DF0F8EF0DF0000E8C6F8B694E
:101BE000000E7A6F000E7B6F000E7C6F000E7D6F13
:101BF0008CBF05EF0EF08C5106E18B05D8B003EFDA
:101C00000EF005EF0EF013EF0EF0000E8C6F000ECD
:101C10008B6F000E7A6F000E7B6F000E7C6F000ED4
:101C20007D6F000E8A6F8BC091F091A11AEF0EF0BC
:101C30001CEF0EF01FEF0EF07C8F20EF0EF07C9F5C
:101C4000D89091317D6FD6EF0CF012001250800BBE
:101C50001F6E12501224266E11AE31EF0EF033EFCC
:101C60000EF034EF0EF026802650D8B43AEF0EF086
:101C70003CEF0EF051EF0EF02628D8A442EF0EF004
:101C800044EF0EF04CEF0EF0000E0F6E000E106ED3
:101C9000000E116E000E126E118E000E126E59EFB4
:101CA0000EF0000E0F6E000E106E000E116E000E84
:101CB000126E1650800B1F1A16501624276E15AE82
:101CC00064EF0EF066EF0EF067EF0EF027802750FE
:101CD000D8B46DEF0EF06FEF0EF084EF0EF0272802
:101CE000D8A475EF0EF077EF0EF07FEF0EF0000E38
:101CF000136E000E146E000E156E000E166E158E0D
:101D0000000E166E8CEF0EF0000E136E000E146EA9
:101D1000000E156E000E166E1350141015101610CE
:101D2000D8A495EF0EF097EF0EF0AFEF0EF0000E87
:101D30000F6E000E106E000E116E000E126E800EF1
:101D400011127F0E12121F5012120FC00FF010C08E
:101D500010F011C011F012C012F0F2EF0FF0265087
:101D6000D8A4B5EF0EF0B7EF0EF0C1EF0EF0000EF5
:101D70000F6E000E106E000E116E000E126EF2EF5E
:101D80000FF0275026C017F0186A175E000E185A79
:101D90007F0E1724206E000E1820216E0FC01BF03E
:101DA00010C01CF011C01DF012C01EF0000E0F6E0E
:101DB000000E106E000E116E000E126E000E226EDE
:101DC000000E236E000E246E000E256E000E276E90
:101DD00022EF0FF02750D8B4F0EF0EF0F2EF0EF034
:101DE00009EF0FF0D8901B361C361D361E36D890E2
:101DF0000F3610361136123625AE01EF0FF003EF15
:101E00000FF004EF0FF00F80D890223623362436DF
:101E1000253613501B5C14501C5815501D58165075
:101E20001E58D8A016EF0FF018EF0FF021EF0FF0AB
:101E3000258C13501B5E14501C5A15501D5A1650F9
:101E40001E5A272A190E276428EF0FF02AEF0FF0E9
:101E5000EAEF0EF01B501C101D101E10D8B433EF0B
:101E60000FF035EF0FF04DEF0FF022804DEF0FF038
:101E7000D8900F3610361136123625AE42EF0FF0DD
:101E800044EF0FF045EF0FF00F80D8902236233645
:101E9000243625362006D8A0210611AE52EF0FF0C9
:101EA00054EF0FF038EF0FF0000E276E25AE5BEF0A
:101EB0000FF05DEF0FF081EF0FF0FF0E2214176EA1
:101EC000FF0E2314186EFF0E2414196E7F0E2514B6
:101ED0001A6E1750181019101A10D8B472EF0FF0AC
:101EE00074EF0FF078EF0FF0010E276E81EF0FF017
:101EF0000FA07DEF0FF07FEF0FF081EF0FF074EF89
:101F00000FF02750D8B487EF0FF089EF0FF0ADEF47
:101F10000FF0010E0F26000E10221122122212A025
:101F200094EF0FF096EF0FF0ADEF0FF00FC017F03A
:101F300010C018F011C019F012C01AF01A341A3279
:101F400019321832173217C00FF018C010F019C02C
:101F500011F01AC012F0204A212A21BEB8EF0FF06A
:101F6000215008E12028D8A0B8EF0FF0BAEF0FF009
:101F7000C5EF0FF0000E216E2068000E0F6E000EF0
:101F8000106E000E116E000E126E21BED2EF0FF019
:101F9000215006E12004D8B0D0EF0FF0D2EF0FF0BF
:101FA000E0EF0FF0000E216E000E206E000E0F6E9F
:101FB000000E106E000E116E000E126E000E1F6EDF
:101FC00020C026F026A0E7EF0FF0E9EF0FF0ECEFCE
:101FD0000FF0118EEDEF0FF0119ED8902630126E9B
:101FE000A3EF0EF012008EEC1AF0F28EF28CDFEC02
:101FF00016F0310E0001716F7151D8A4100E726F7E
:1020000053EC18F0090E0001C26F1E0EC16FE40EF2
:10201000E82EFED7C12FFCD7C22FFAD70000010E41
:1020200033EC17F099EC1AF068EC1AF04A0E000144
:102030006C6F2B0E6D6FA8EC1AF0000EB7EC18F059
:102040006CC02CF16DC02DF12CC1C1F02DC1C2F0BE
:10205000060E0001C36FD890C233C133C32F2BEFDC
:1020600010F0C1C02EF1C2C02FF1000E976F000E0C
:10207000986FFA0E996F430E9A6F000E7E6FC00E26
:102080007F6F7F0E806F440E816F2EC16CF02FC169
:102090006DF06E6B6F6B000EE0EC10F06CC07AF0C0
:1020A0006DC07BF06EC07CF06FC07DF058EC0CF022
:1020B0007AC093F07BC094F07CC095F07DC096F020
:1020C0002DEC08F093C0ACF094C0ADF095C0AEF02C
:1020D00096C0AFF09EEC14F0ACC030F1ADC031F161
:1020E000200E0001826F010E836F560E846F30C187
:1020F00085F031C186F043EC19F016EC14F0B6C04F
:1021000032F1B7C033F1260E0001826F010E836FEA
:10211000560E846F32C185F033C186F043EC19F05E
:10212000510E0001716F7151D8A4100E726F53ECF3
:1021300018F0200E0001716F010E726F53EC18F051
:10214000030E0001C26F080EC16F770EE82EFED796
:10215000C12FFCD7C22FFAD7C00E33EC17F04A0EAE
:102160000001716F7151D8A4100E726F53EC18F00A
:10217000260E0001716F010E726F53EC18F0150EF0
:102180000001C26F4B0EC16FBE0EE82EFED7C12FED
:10219000FCD7C22FFAD70000010E33EC17F0020E65
:1021A0000001C26F040EC16FBA0EE82EFED7C12F18
:1021B000FCD7C22FFAD700001DEF10F039EF00F066
:1021C0000001746F00017451D8B4E9EF10F0EBEF27
:1021D00010F00DEF11F06FBFF2EF10F0F0EF10F014
:1021E0000DEF11F06CC070F06DC071F06EC072F048
:1021F0006FC073F0701F711F721F731F702B000E62
:1022000071237223732370C076F071C077F072C0AF
:1022100078F073C079F015EF11F06CC076F06DC0F6
:1022200077F06EC078F06FC079F06C516D116E115F
:102230006F11D8A41EEF11F020EF11F02AEF11F06A
:10224000000E6C6F000E6D6F000E6E6F000E6F6FE4
:10225000BBEF11F0960E756F34EF11F0752BD8901F
:102260007933783377337633000E7615706F000E3E
:102270007715716F000E7815726FFE0E7915736FFA
:102280007051711172117311D8A449EF11F04BEF15
:1022900011F02EEF11F059EF11F0752B010E76278A
:1022A000000E772378237923D890793378337733E6
:1022B0007633000E7615706F000E7715716F000E75
:1022C0007815726FFF0E7915736F7051711172115D
:1022D0007311D8A46EEF11F070EF11F04DEF11F003
:1022E00078EF11F07507D8907637773778377937E8
:1022F00078BF7DEF11F07FEF11F087EF11F0020E44
:10230000756185EF11F087EF11F072EF11F075B183
:102310008CEF11F08EEF11F08FEF11F0789FD890C5
:10232000753375C070F0716B726B736B70C073F046
:10233000726B716B706B70517613715177137251B0
:102340007813735179137451D8B4A9EF11F0ABEF2E
:1023500011F0B3EF11F06FBFB2EF11F0B0EF11F069
:10236000B3EF11F0798F76C06CF077C06DF078C064
:102370006EF079C06FF01200096E0950D8B4C3EF47
:1023800011F0C5EF11F0E7EF11F004BECCEF11F042
:10239000CAEF11F0E7EF11F001C005F002C006F03E
:1023A00003C007F004C008F0051E061E071E081E25
:1023B000052A000E06220722082205C00BF006C0DF
:1023C0000CF007C00DF008C00EF0EFEF11F001C0E7
:1023D0000BF002C00CF003C00DF004C00EF0015071
:1023E000021003100410D8A4F8EF11F0FAEF11F066
:1023F00004EF12F0000E016E000E026E000E036E6E
:10240000000E046E95EF12F0960E0A6E0EEF12F0AB
:102410000A2AD8900E320D320C320B32000E0B14F9
:10242000056E000E0C14066E000E0D14076EFE0EE7
:102430000E14086E0550061007100810D8A423EFDC
:1024400012F025EF12F008EF12F033EF12F00A2A23
:10245000010E0B26000E0C220D220E22D8900E32F9
:102460000D320C320B32000E0B14056E000E0C14E4
:10247000066E000E0D14076EFF0E0E14086E05504A
:10248000061007100810D8A448EF12F04AEF12F017
:1024900027EF12F052EF12F00A06D8900B360C36E6
:1024A0000D360E360DBE57EF12F059EF12F061EFF8
:1024B00012F0020E0A605FEF12F061EF12F04CEFC3
:1024C00012F00AB066EF12F068EF12F069EF12F046
:1024D0000D9ED8900A320AC005F0066A076A086A9B
:1024E00005C008F0076A066A056A05500B12065017
:1024F0000C1207500D1208500E120950D8B483EF79
:1025000012F085EF12F08DEF12F004BE8CEF12F096
:102510008AEF12F08DEF12F00E8E0BC001F00CC09E
:1025200002F00DC003F00EC004F01200000175515E
:10253000D96EDA6ADFCFF6FF100EF76EF86A080080
:10254000F550250AD8A4A7EF12F0A9EF12F045EF35
:1025500013F07551D96EDA6ADF2A000EC56F000ECE
:10256000C46FC4C05DF0C669C7697551D96EDA6AB7
:10257000DF507C6F7CC0F6FF100EF76EF86A080023
:10258000F550750AD8A4C7EF12F0C9EF12F03EEF6C
:1025900013F07651D96EDA6A020EDF26DF5CD96E4F
:1025A000DA6ADECF78F0DECF79F07551D96EDA6A6B
:1025B0007C29DF6E31EF13F0200E7D6F7D07000E5A
:1025C0007D25D96EDA6A010EDA2278C06CF079C006
:1025D0006DF0000E6F6F0A0E6E6F20EC18F00001A8
:1025E0006C51300FDF6E78C06CF079C06DF0000E6A
:1025F0006F6F0A0E6E6F70EC17F06CC078F06DC0E4
:1026000079F0000178517911D8B409EF13F00BEF8C
:1026100013F026EF13F07D51D8A411EF13F013EF50
:1026200013F0DEEF12F026EF13F0000E7D25D96EC9
:10263000DA6A010EDA22DF50776F77516C6F6D6BBB
:1026400074C06EF024EC16F000017D2B200E7D1975
:10265000D8A42DEF13F02FEF13F015EF13F057EF71
:1026600013F07CC0F6FF100EF76EF86A0800F55004
:10267000750AD8B4DCEF12F03EEF13F0000175518B
:10268000D96EDA6ADF2A57EF13F07551D96EDA6A1C
:10269000DFCFF6FF100EF76EF86A0800F5506C6F8A
:1026A0006D6B74C06EF024EC16F03EEF13F0120068
:1026B0000A50D96EDA6ADFCFF6FF100EF76EF86AAD
:1026C0000800F550250AD8A468EF13F06AEF13F05C
:1026D00003EF14F00A50D96EDA6ADF2A000E000107
:1026E000C56F000EC46FC4C05DF0C669C7690A50EB
:1026F000D96EDA6ADF50116E11C0F6FF100EF76E58
:10270000F86A0800F550750AD8A489EF13F08BEF2A
:1027100013F0FDEF13F00B50D96EDA6A020EDF26CC
:10272000DF5CD96EDA6ADECF0DF0DECF0EF00A5034
:10273000D96EDA6A1128DF6EF0EF13F0200E126EF8
:102740001206000E1224D96EDA6A010EDA220DC0CA
:1027500001F00EC002F0000E046E0A0E036E85EC4E
:1027600018F00150300FDF6E0DC001F00EC002F006
:10277000000E046E0A0E036EE6EC17F001C00DF0B9
:1027800002C00EF00D500E10D8B4C9EF13F0CBEF0D
:1027900013F0E5EF13F01250D8A4D1EF13F0D3EFFC
:1027A00013F0A0EF13F0E5EF13F0000E1224D96E32
:1027B000DA6A010EDA22DF500C6E0C50016E026AEA
:1027C00009C003F082EC16F0122A200E1218D8A4C9
:1027D000ECEF13F0EEEF13F0D5EF13F015EF14F06C
:1027E00011C0F6FF100EF76EF86A0800F550750A72
:1027F000D8B49EEF13F0FDEF13F00A50D96EDA6AE9
:10280000DF2A15EF14F00A50D96EDA6ADFCFF6FF2F
:10281000100EF76EF86A0800F550016E026A09C0E2
:1028200003F082EC16F0FDEF13F01200010EB7EC8E
:1028300018F06CC0BBF06DC0BCF0BBC0B8F0BCC041
:10284000B9F0060E0001BA6FD890B933B833BA2F79
:1028500024EF14F0B8C0BDF0B9C0BEF0C30EBD5D2A
:10286000010EBE59D8A037EF14F039EF14F099EFEC
:1028700014F0CECFCAF0CFCFCBF0CC51CA5DBF6F32
:10288000CD51CB59C06FCAC0CCF0CBC0CDF0BF5139
:10289000C011D8B44EEF14F050EF14F08CEF14F0D8
:1028A000BD0E976F370E986F060E996F360E9A6FA2
:1028B000BFC06CF0C0C06DF06E6B6F6B000EE0ECD3
:1028C00010F06CC093F06DC094F06EC095F06FC0C6
:1028D00096F02DEC08F093C07EF094C07FF095C088
:1028E00080F096C081F0000E00017A6F000E7B6FC1
:1028F000700E7C6F420E7D6F58EC0CF07AC0ACF01D
:102900007BC0ADF07CC0AEF07DC0AFF09EEC14F0AB
:10291000ACC0C8F0ADC0C9F0070E0001B96F170E0A
:10292000B86F6A0EE82EFED7B82FFCD7B92FFAD7AA
:102930000000C8C0B6F0C9C0B7F012000001AE3543
:10294000AF35B56FB551D8A4A8EF14F0AAEF14F0C5
:10295000B4EF14F0000EAC6F000EAD6F000EAE6F52
:10296000000EAF6F21EF15F0ACC0B0F0ADC0B1F00C
:10297000AEC0B2F0AFC0B3F0200EC4EF14F0D890E8
:10298000B333B233B133B033E82EBFEF14F0B051EC
:10299000B46FAE8FFF0EAC17FF0EAD17FF0EAE1764
:1029A000000EAF17960EB55FB5BFDBEF14F0D9EF91
:1029B00014F0F1EF14F0B551800A970FD8B0E3EF9F
:1029C00014F0E5EF14F0E7EF14F0AAEF14F0D8904C
:1029D000AF33AE33AD33AC33B53FE7EF14F009EFAF
:1029E00015F01F0EB565F7EF14F0F9EF14F001EFD5
:1029F00015F0AAEF14F0D890AC37AD37AE37AF373B
:102A0000B507B551D8A407EF15F009EF15F0FBEFA6
:102A100014F0B451D8B40FEF15F011EF15F019EF11
:102A200015F0AF1FAE1FAD1FAC6D000EAD23AE2372
:102A3000AF23ACC0ACF0ADC0ADF0AEC0AEF0AFC037
:102A4000AFF01200433444344A6E4A50D8A42BEFFE
:102A500015F02DEF15F037EF15F0000E416E000E5A
:102A6000426E000E436E000E446EA4EF15F041C09E
:102A700045F042C046F043C047F044C048F0200E45
:102A800047EF15F0D8904832473246324532E82EAB
:102A900042EF15F04550496E438EFF0E4116FF0E72
:102AA0004216FF0E4316000E4416960E4A5E4ABEAC
:102AB0005EEF15F05CEF15F074EF15F04A50800AE8
:102AC000970FD8B066EF15F068EF15F06AEF15F0C4
:102AD0002DEF15F0D89044324332423241324A3E13
:102AE0006AEF15F08CEF15F01F0E4A647AEF15F0BF
:102AF0007CEF15F084EF15F02DEF15F0D8904136EE
:102B00004236433644364A064A50D8A48AEF15F076
:102B10008CEF15F07EEF15F04950D8B492EF15F018
:102B200094EF15F09CEF15F0441E431E421E416CBD
:102B3000000E42224322442241C041F042C042F0F2
:102B400043C043F044C044F012005B4A5C2A0A0EC2
:102B50005B185C10D8A4AFEF15F0B1EF15F023EFC0
:102B600016F0000E5C6E000E5B6E000E21EC19F08C
:102B700001C054F002C055F054C04BF055C04CF0A9
:102B8000060E4D6ED8904C324B324D2EC2EF15F0E2
:102B90004BC056F04CC057F0000E2C6E000E2D6E40
:102BA000FA0E2E6E430E2F6E000E136EC00E146EB4
:102BB0007F0E156E440E166E56C001F057C002F01F
:102BC000036A046A000EBCEC11F001C00FF002C0F1
:102BD00010F003C011F004C012F026EC0EF00FC08C
:102BE00028F010C029F011C02AF012C02BF043ECDD
:102BF0000AF028C041F029C042F02AC043F02BC09F
:102C000044F022EC15F041C058F042C059F058C0D1
:102C10005AF04E0E176E186A3F0E196E5AC01AF00F
:102C20001B6AA1EC19F04E0E026EDCEC19F0030EDB
:102C30004C6E080E4B6E770EE82EFED74B2EFCD74F
:102C40004C2EFAD70000120000016E51D8B42BEFC1
:102C500016F02DEF16F035EF16F06E51D8A433EFC5
:102C600016F035EF16F03AEF16F06C51C5EC1AF08D
:102C700081EF16F06E51D96EDA6A0A0ED926DE504F
:102C8000DE10D8B446EF16F048EF16F061EF16F0FC
:102C90006E51D96EDA6A0A0ED9266E51E16EE26A79
:102CA000030EE126DE50E65CE650800A736FDE50CC
:102CB000800A7359D8B05FEF16F061EF16F081EF1C
:102CC00016F06E51D96EDA6A030ED926DECF6FF098
:102CD000DDCF70F06E51D96EDA6ADECF71F0DDCFE4
:102CE00072F06F517125D96E70517221DA6E6CC01D
:102CF000DFFF6E51D96EDA6A030ED926DE2A000E86
:102D0000DD2212000350D8B488EF16F08AEF16F0D7
:102D100092EF16F00350D8A490EF16F092EF16F051
:102D200097EF16F00150C6EC1AF0DEEF16F00350E4
:102D3000D96EDA6A0A0ED926DE50DE10D8B4A3EFB7
:102D400016F0A5EF16F0BEEF16F00350D96EDA6A52
:102D50000A0ED9260350E16EE26A030EE126DE5028
:102D6000E65CE650800A086EDE50800A0858D8B04B
:102D7000BCEF16F0BEEF16F0DEEF16F00350D96E82
:102D8000DA6A030ED926DECF04F0DDCF05F003505A
:102D9000D96EDA6ADECF06F0DDCF07F004500624E4
:102DA000D96E05500720DA6E01C0DFFF0350D96EDF
:102DB000DA6A030ED926DE2A000EDD22120010EC9C
:102DC0001AF0680E0001716FE40EE82EFED7712F25
:102DD000FCD70000330E33EC17F01A0E0001716FB0
:102DE000F80EE82EFED7712FFCD70000320E33EC20
:102DF00017F01A0E0001716FF80EE82EFED7712F32
:102E0000FCD70000280E33EC17F01A0E0001716F8A
:102E1000F80EE82EFED7712FFCD700000C0E33EC15
:102E200017F01A0E0001716FF80EE82EFED7712F01
:102E3000FCD70000060E33EC17F01A0E0001716F7C
:102E4000F80EE82EFED7712FFCD70000010E33ECF0
:102E500017F01A0E0001716FF80EE82EFED7712FD1
:102E6000FCD7000012000001706F00017051F00BE0
:102E700004096D6F090E3AEC1AF000F000F000F052
:102E800000F000017051F00B6D6F090E3AEC1AF072
:102E90000B0E00016F6F620EE82EFED76F2FFCD76E
:102EA000000000017039F00BF00B04096D6F090E82
:102EB0003AEC1AF000F000F000F000F00001703978
:102EC000F00BF00B6D6F090E3AEC1AF00B0E0001CF
:102ED0006F6F620EE82EFED76F2FFCD70000120036
:102EE000000E0001726F000E716F6E516F11D8B439
:102EF0007CEF17F07EEF17F0A6EF17F0010E706F62
:102F000086EF17F0D8906E376F37702B6FAF8BEF5F
:102F100017F08DEF17F082EF17F0D89071377237F6
:102F20006E516C5D6F516D59D8A099EF17F09BEF02
:102F300017F0A0EF17F06E516C5F6F516D5B7181F0
:102F4000D8906F336E33702F8DEF17F071C06CF027
:102F500072C06DF012000001706F00017051F00B33
:102F600005096D6F090E3AEC1AF000F000F000F060
:102F700000F000017051F00B01096D6F090E3AEC81
:102F80001AF0A00E00F000F0E82EFCD70001703916
:102F9000F00BF00B05096D6F090E3AEC1AF000F01A
:102FA00000F000F000F000017039F00BF00B0109A7
:102FB0006D6F090E3AEC1AF00B0E00016F6F620E86
:102FC000E82EFED76F2FFCD700001200000E076E10
:102FD000000E066E03500410D8B4F1EF17F0F3EFB3
:102FE00017F01BEF18F0010E056EFBEF17F0D890ED
:102FF00003360436052A04AE00EF18F002EF18F08D
:10300000F7EF17F0D890063607360350015C0450EE
:103010000258D8A00EEF18F010EF18F015EF18F0C6
:103020000350015E0450025A0680D89004320332E5
:10303000052E02EF18F006C001F007C002F01200E2
:1030400000016E516F11D8B428EF18F02AEF18F074
:103050004EEF18F0010E706F32EF18F0D8906E3707
:103060006F37702B6FAF37EF18F039EF18F02EEF86
:1030700018F06E516C5D6F516D59D8A042EF18F089
:1030800044EF18F048EF18F06E516C5F6F516D5BB4
:10309000D8906F336E33702F39EF18F06CC06CF02E
:1030A0006DC06DF012006BEF18F071C0F6FF72C0CA
:1030B000F7FF000EF86E0F0EF76403D00800F5500E
:1030C00005D0F6CFE9FFF7CFEAFFEF50ABEC17F0F2
:1030D0000001714B722B71C0F6FF72C0F7FF000E3A
:1030E000F86E0F0EF76403D00800F55005D0F6CF48
:1030F000E9FFF7CFEAFFEF500009D8A482EF18F0FC
:1031000084EF18F055EF18F0120003500410D8B4F3
:103110008CEF18F08EEF18F0B2EF18F0010E056E7C
:1031200096EF18F0D89003360436052A04AE9BEFCC
:1031300018F09DEF18F092EF18F00350015C045066
:103140000258D8A0A6EF18F0A8EF18F0ACEF18F0CE
:103150000350015E0450025AD89004320332052E07
:103160009DEF18F001C001F002C002F01200000152
:10317000706F70C06EF000016E476E47C2506E19DE
:10318000C30B6E19C26EC2800A0EE82EFED700F085
:1031900000F0C282C2B2CFEF18F0D1EF18F0CAEF40
:1031A00018F0C45000016F6F6E6BC3506E256C6FCA
:1031B000000E6F216D6F1200F2A4E1EF18F0E3EF43
:1031C00018F0FEEF18F0F294C30ED76E270ED66EED
:1031D0000001CE51CF11D8B4F0EF18F0F2EF18F093
:1031E000FEEF18F002D8FEEF18F00500FA6ECE518F
:1031F000FD6ECF51FE6EFF6AFA50120012007FC0C2
:1032000081F00CEF19F07EC074F0810E0001756F33
:1032100080C076F096EC12F081C0F6FF100EF76ECB
:10322000F86A0800F5500009D8A419EF19F01BEF4F
:1032300019F003EF19F0000E00017F6F000E7E6F92
:103240001200056E05C003F003460346C250031882
:10325000C30B0318C26EC2800A0EE82EFED700F020
:1032600000F0C282C2B237EF19F039EF19F032EF35
:1032700019F0C450046E036AC3500324016E000E9B
:103280000420026E1200850E0001876F82C088F054
:1032900083C089F0000E8C6F000E8B6F000E936F51
:1032A000000E926F880E7E6F84C07FF0870E806F55
:1032B000FFEC18F000018B518225D96E8C518321CF
:1032C000DA6EDF6A120014C016F06FEF19F013C047
:1032D00009F0160E0A6E15C00BF058EC13F016C06C
:1032E000F6FF100EF76EF86A0800F5500009D8A432
:1032F0007CEF19F07EEF19F067EF19F0000E146EF5
:10330000000E136E1200480EB86E900EAB6E260EB5
:10331000AC6EA00EAF6E010EB06E000E00016C6FB1
:10332000000E6D6F59EC1AF0000E00016C6F000E6C
:103330006D6F4AEC1AF0000E0001DB6F000EDA6FC1
:1033400012001A0E1C6E17C01DF018C01EF0000EE1
:10335000216E000E206E000E286E000E276E1D0ED0
:10336000136E19C014F01C0E156E63EC19F020508A
:103370001724D96E21501820DA6EDF6A1200D09E11
:10338000F292F18C000E00016C6F000E6D6FB7ECC5
:103390001AF0F090F18A000E00016C6F000E6D6F54
:1033A000B2EC1AF0F092F188000E00016C6F000E82
:1033B0006D6FADEC1AF01200ECEF19F09EA8E3EF80
:1033C00019F0E5EF19F0DEEF19F00250D96EDA6A64
:1033D000DF50C1EC1AF0022A0250D96EDA6ADF50CF
:1033E000D8A4F5EF19F0F7EF19F0DEEF19F012009D
:1033F000000E896E000E8A6E000E8B6E000E8C6EB3
:10340000000E8D6E92689368BF0E946E9568070EDD
:10341000966E1F0E7F6E7C68000E7D6EF286120027
:103420009590A1EC1AF0FF0E00016D6F0A0E3AECB8
:103430001AF0000E00016D6F000E3AEC1AF0FF0E4C
:1034400000016D6F060E3AEC1AF0120001EE00F06A
:10345000200EEE6AE806FDE100EEC4F01E0EEE6AF4
:10346000E806FDE15D6A5C6A5B6A5E905E9200015F
:10347000F3EF0FF000016E6F8C90400E82EC1AF0AB
:1034800000016E5182EC1AF000016D5182EC1AF0CD
:103490008C80120000016C516D11D8B452EF1AF0FB
:1034A00054EF1AF058EF1AF06CC0D6F06DC0D7F098
:1034B000120000016C516D11D8B461EF1AF063EF86
:1034C0001AF067EF1AF06CC0D8F06DC0D9F0120096
:1034D000D59ED596D59A070ED512D59CC30ED76E1C
:1034E000270ED66EF294F28AD58E1200000EC16EAF
:1034F000000EC06E000EC36E000EC46E030EC26ED0
:103500009E9C120000016C6F6CC0C9FFC7A08BEFBE
:103510001AF08DEF1AF086EF1AF01200BCEC1AF0D8
:10352000F8EC19F076EC1AF083EC19F0BFEC19F016
:103530001200310ECD6E000ECF6E000ECE6E9E903C
:1035400012009496949A200EC66E000EC76E12005A
:103550006CC0CEF06DC0CFF012006CC0DCF06DC05E
:10356000DDF012006CC0DEF06DC0DFF012006CC048
:10357000E0F06DC0E1F01200700ED36E000E9B6E95
:0E3580001200016E01C0ADFF12001200120019
:020000040030CA
:0E000000FF081F1EFF8B85FF0FC00FE00F4093
:00000001FF
