:0400000039EF00F0E4
:100008005E82FACF60F0FBCF61F0E1CF62F0E2CF21
:1000180063F0D9CF64F0DACF65F0F3CF66F0F4CFB0
:1000280067F0F6CF68F0F7CF69F0F8CF6AF0F5CF50
:100038006BF019EC18F06BC0F5FF6AC0F8FF69C0E7
:10004800F7FF68C0F6FF67C0F4FF66C0F3FF65C03E
:10005800DAFF64C0D9FF63C0E2FF62C0E1FF61C09C
:0E006800FBFF60C0FAFF5E92110091EF19F0ED
:1010000000803100000000E033000000000000001C
:1010100000000000000000000000000000000000D0
:101020000000000000000000000433E63200000071
:10103000004D6F6E69746F72205374617274005446
:10104000656D703A2025750D0A0054203A20002560
:0310500075000028
:1010540000019651800B9F6F96519625A56F95AF11
:1010640036EF08F038EF08F039EF08F0A581A55104
:10107400D8B43FEF08F041EF08F054EF08F0A52989
:10108400D8A447EF08F049EF08F051EF08F0000E3C
:10109400936F000E946F000E956F000E966F958FF0
:1010A4005CEF08F0000E936F000E946F000E956FC6
:1010B400000E966F9A51800B9F1B9A519A25A06F30
:1010C40099AF67EF08F069EF08F06AEF08F0A081C4
:1010D400A051D8B470EF08F072EF08F085EF08F073
:1010E400A029D8A478EF08F07AEF08F082EF08F08E
:1010F400000E976F000E986F000E996F000E9A6F96
:10110400998F8DEF08F0000E976F000E986F000E08
:10111400996F000E9A6FA051D8B493EF08F095EF31
:1011240008F09DEF08F0A551D8A49BEF08F09DEFBF
:1011340008F0A7EF08F0000E936F000E946F000EF6
:10114400956F000E966F3FEF0AF099519303F3CF1A
:10115400AAF0F4CFABF0AA51A16FA26BA36BA46B5E
:10116400AB51A66FA76BA86BA96B98519403F3CFEF
:10117400AAF0F4CFABF0AA51A127000EA223A32317
:10118400A423AB51A627000EA723A823A923975174
:101194009503F3CFAAF0F4CFABF0AA51A127000E28
:1011A400A223A323A423AB51A627000EA723A8237D
:1011B400A923A3C0A4F0A2C0A3F0A1C0A2F0A16B74
:1011C40097519403F3CFAAF0F4CFABF0AA51A1271F
:1011D400AB51A223000EA323000EA4239851930322
:1011E400F3CFAAF0F4CFABF0AA51A127AB51A223BD
:1011F400000EA323000EA423A3C0A4F0A2C0A3F056
:10120400A1C0A2F0A16B97519303F3CFAAF0F4CF3E
:10121400ABF0AA51A127AB51A223000EA323000EC9
:10122400A42399519403F3CFAAF0F4CFABF0AA51BD
:10123400A627AB51A723000EA823000EA92398517B
:101244009503F3CFAAF0F4CFABF0AA51A627AB5184
:10125400A723000EA823000EA92399519503F3CFC9
:10126400AAF0F4CFABF0AA519B6FAB519C6F9D6B6E
:101274009E6B9DC09EF09CC09DF09BC09CF09B6BA0
:101284009B51A6279C51A7239D51A8239E51A92376
:10129400A1C09BF0A2C09CF0A3C09DF0A4C09EF08E
:1012A400190E5AEF09F0D8909E339D339C339B332B
:1012B400E82E55EF09F09B51A6279C51A7239D5179
:1012C400A8239E51A923A3C0A4F0A2C0A3F0A1C047
:1012D400A2F0A16BA051A5C09BF09C6B9B27000EB4
:1012E4009C23820E9B25AA6FFF0E9C21AB6F90EF6F
:1012F40009F0D890A637A737A837A937A4AF85EF48
:1013040009F087EF09F088EF09F0A681D890A1379A
:10131400A237A337A437AA07D8A0AB07A8AF95EF85
:1013240009F097EF09F07BEF09F0000EA06FA4AF6E
:101334009EEF09F0A0EF09F0C4EF09F0FF0EA1152C
:101344009B6FFF0EA2159C6FFF0EA3159D6F7F0E62
:10135400A4159E6F9B519C119D119E11D8B4B5EF9D
:1013640009F0B7EF09F0BBEF09F0010EA06FC4EF6D
:1013740009F0A6A1C0EF09F0C2EF09F0C4EF09F02B
:10138400B7EF09F0A051D8B4CAEF09F0CCEF09F0D7
:10139400F0EF09F0010EA627000EA723A823A92326
:1013A400A9A1D7EF09F0D9EF09F0F0EF09F0A6C031
:1013B4009BF0A7C09CF0A8C09DF0A9C09EF09E35EC
:1013C4009E339D339C339B339BC0A6F09CC0A7F0F7
:1013D4009DC0A8F09EC0A9F0AA4BAB2BABBFFBEFFE
:1013E40009F0AB5108E1AA29D8A0FBEF09F0FDEF01
:1013F40009F007EF0AF0000EA66F000EA76F800E2B
:10140400A86F7F0EA96F35EF0AF0ABBF14EF0AF097
:10141400AB5106E1AA05D8B012EF0AF014EF0AF0B6
:1014240020EF0AF0000EA66F000EA76F000EA86F43
:10143400000EA96F000E9F6F35EF0AF0AAC0A5F049
:10144400FF0EA617FF0EA7177F0EA817000EA917E9
:10145400A5A12FEF0AF031EF0AF032EF0AF0A88FBE
:10146400D890A531A96F9F51A913A6C093F0A7C026
:1014740094F0A8C095F0A9C096F012002B50800BF0
:10148400346E2B502B243A6E2AAE4BEF0AF04DEFFC
:101494000AF04EEF0AF03A803A50D8B454EF0AF00A
:1014A40056EF0AF069EF0AF03A28D8A45CEF0AF084
:1014B4005EEF0AF066EF0AF0000E286E000E296E49
:1014C400000E2A6E000E2B6E2A8E71EF0AF0000EAB
:1014D400286E000E296E000E2A6E000E2B6E2F5001
:1014E400800B341A2F502F24396E2EAE7CEF0AF065
:1014F4007EEF0AF07FEF0AF039803950D8B485EFD7
:101504000AF087EF0AF09AEF0AF03928D8A48DEF91
:101514000AF08FEF0AF097EF0AF0000E2C6E000E1F
:101524002D6E000E2E6E000E2F6E2E8EA2EF0AF080
:10153400000E2C6E000E2D6E000E2E6E000E2F6E01
:101544003950D8B4A8EF0AF0AAEF0AF0B2EF0AF0C3
:101554003A50D8A4B0EF0AF0B2EF0AF0BCEF0AF0A8
:10156400000E286E000E296E000E2A6E000E2B6EE1
:1015740054EF0CF02E502802F3CF3FF0F4CF40F09C
:101584003F50356E366A376A386A40503B6E3C6A63
:101594003D6A3E6A2D502902F3CF3FF0F4CF40F06C
:1015A4003F503526000E36223722382240503B2643
:1015B400000E3C223D223E222C502A02F3CF3FF063
:1015C400F4CF40F03F503526000E36223722382221
:1015D40040503B26000E3C223D223E2237C038F0CC
:1015E40036C037F035C036F0356A2C502902F3CFB7
:1015F4003FF0F4CF40F03F50352640503622000EE5
:101604003722000E38222D502802F3CF3FF0F4CFBA
:1016140040F03F50352640503622000E3722000E4F
:10162400382237C038F036C037F035C036F0356A66
:101634002C502802F3CF3FF0F4CF40F03F50352632
:1016440040503622000E3722000E38222E50290236
:10165400F3CF3FF0F4CF40F03F503B2640503C22C4
:10166400000E3D22000E3E222D502A02F3CF3FF001
:10167400F4CF40F03F503B2640503C22000E3D2228
:10168400000E3E222E502A02F3CF3FF0F4CF40F05A
:101694003F50306E4050316E326A336A32C033F09C
:1016A40031C032F030C031F0306A30503B26315016
:1016B4003C2232503D2233503E2235C030F036C0F9
:1016C40031F037C032F038C033F0190E6FEF0BF041
:1016D400D8903332323231323032E82E6AEF0BF0A6
:1016E40030503B2631503C2232503D2233503E2272
:1016F40037C038F036C037F035C036F0356A395067
:101704003AC030F0316A3026000E3122820E302485
:101714003F6EFF0E3120406EA5EF0BF0D8903B36A4
:101724003C363D363E3638AE9AEF0BF09CEF0BF06C
:101734009DEF0BF03B80D890353636363736383649
:101744003F06D8A040063DAEAAEF0BF0ACEF0BF07D
:1017540090EF0BF0000E396E38AEB3EF0BF0B5EF2F
:101764000BF0D9EF0BF0FF0E3514306EFF0E36146C
:10177400316EFF0E3714326E7F0E3814336E3050D4
:10178400311032103310D8B4CAEF0BF0CCEF0BF099
:10179400D0EF0BF0010E396ED9EF0BF03BA0D5EF73
:1017A4000BF0D7EF0BF0D9EF0BF0CCEF0BF0395077
:1017B400D8B4DFEF0BF0E1EF0BF005EF0CF0010E06
:1017C4003B26000E3C223D223E223EA0ECEF0BF0D5
:1017D400EEEF0BF005EF0CF03BC030F03CC031F005
:1017E4003DC032F03EC033F0333433323232313222
:1017F400303230C03BF031C03CF032C03DF033C039
:101804003EF03F4A402A40BE10EF0CF0405008E141
:101814003F28D8A010EF0CF012EF0CF01CEF0CF0E6
:10182400000E3B6E000E3C6E800E3D6E7F0E3E6ED3
:101834004AEF0CF040BE29EF0CF0405006E13F04A3
:10184400D8B027EF0CF029EF0CF035EF0CF0000EB8
:101854003B6E000E3C6E000E3D6E000E3E6E000EA2
:10186400346E4AEF0CF03FC03AF0FF0E3B16FF0E09
:101874003C167F0E3D16000E3E163AA044EF0CF0C7
:1018840046EF0CF047EF0CF03D8ED8903A303E6EA8
:1018940034503E123BC028F03CC029F03DC02AF031
:1018A4003EC02BF0120000017D51800B8A6F7D51E8
:1018B4007D25916F7CAF61EF0CF063EF0CF064EF6A
:1018C4000CF091819151D8B46AEF0CF06CEF0CF0EC
:1018D40081EF0CF09129D8A472EF0CF074EF0CF0A6
:1018E4007CEF0CF0000E7A6F000E7B6F000E7C6FA5
:1018F400000E7D6F7C8F000E7D6F89EF0CF0000E63
:101904007A6F000E7B6F000E7C6F000E7D6F81512D
:10191400800B8A1B81518125926F80AF94EF0CF06C
:1019240096EF0CF097EF0CF092819251D8B49DEFA2
:101934000CF09FEF0CF0B4EF0CF09229D8A4A5EFB3
:101944000CF0A7EF0CF0AFEF0CF0000E7E6F000E62
:101954007F6F000E806F000E816F808F000E816F8D
:10196400BCEF0CF0000E7E6F000E7F6F000E806FD8
:10197400000E816F7E517F1180118111D8A4C5EFB3
:101984000CF0C7EF0CF0DFEF0CF0000E7A6F000ED6
:101994007B6F000E7C6F000E7D6F800E7C137F0EBC
:1019A4007D138A517D137AC07AF07BC07BF07CC0B2
:1019B4007CF07DC07DF022EF0EF09151D8A4E5EFCC
:1019C4000CF0E7EF0CF0F1EF0CF0000E7A6F000E64
:1019D4007B6F000E7C6F000E7D6F22EF0EF0925134
:1019E40091C082F0836B825F000E835B7F0E822541
:1019F4008B6F000E83218C6F7AC086F07BC087F0DA
:101A04007CC088F07DC089F0000E7A6F000E7B6F79
:101A1400000E7C6F000E7D6F000E8D6F000E8E6FBA
:101A2400000E8F6F000E906F000E926F52EF0DF04C
:101A34009251D8B420EF0DF022EF0DF039EF0DF0F4
:101A4400D8908637873788378937D8907A377B3765
:101A54007C377D3790AF31EF0DF033EF0DF034EF7D
:101A64000DF07A81D8908D378E378F3790377E512D
:101A7400865D7F5187598051885981518959D8A0F1
:101A840046EF0DF048EF0DF051EF0DF0908D7E51C3
:101A9400865F7F51875B8051885B8151895B922B84
:101AA400190E926558EF0DF05AEF0DF01AEF0DF084
:101AB4008651871188118911D8B463EF0DF065EF51
:101AC4000DF07DEF0DF08D817DEF0DF0D8907A371C
:101AD4007B377C377D3790AF72EF0DF074EF0DF0EC
:101AE40075EF0DF07A81D8908D378E378F37903718
:101AF4008B07D8A08C077CAF82EF0DF084EF0DF03C
:101B040068EF0DF0000E926F90AF8BEF0DF08DEF3C
:101B14000DF0B1EF0DF0FF0E8D15826FFF0E8E15D7
:101B2400836FFF0E8F15846F7F0E9015856F825122
:101B3400831184118511D8B4A2EF0DF0A4EF0DF038
:101B4400A8EF0DF0010E926FB1EF0DF07AA1ADEF99
:101B54000DF0AFEF0DF0B1EF0DF0A4EF0DF09251D9
:101B6400D8B4B7EF0DF0B9EF0DF0DDEF0DF0010EC5
:101B74007A27000E7B237C237D237DA1C4EF0DF007
:101B8400C6EF0DF0DDEF0DF07AC082F07BC083F07C
:101B94007CC084F07DC085F0853585338433833300
:101BA400823382C07AF083C07BF084C07CF085C02D
:101BB4007DF08B4B8C2B8CBFE8EF0DF08C5108E142
:101BC4008B29D8A0E8EF0DF0EAEF0DF0F5EF0DF05A
:101BD400000E8C6F8B69000E7A6F000E7B6F000E07
:101BE4007C6F000E7D6F8CBF02EF0EF08C5106E10E
:101BF4008B05D8B000EF0EF002EF0EF010EF0EF0F0
:101C0400000E8C6F000E8B6F000E7A6F000E7B6FD0
:101C1400000E7C6F000E7D6F000E8A6F8BC091F0FA
:101C240091A117EF0EF019EF0EF01CEF0EF07C8F60
:101C34001DEF0EF07C9FD89091317D6FD3EF0CF0A7
:101C440012001250800B1F6E12501224266E11AE19
:101C54002EEF0EF030EF0EF031EF0EF0268026500E
:101C6400D8B437EF0EF039EF0EF04EEF0EF0262811
:101C7400D8A43FEF0EF041EF0EF049EF0EF0000E46
:101C84000F6E000E106E000E116E000E126E118E8D
:101C9400000E126E56EF0EF0000E0F6E000E106E58
:101CA400000E116E000E126E1650800B1F1A165085
:101CB4001624276E15AE61EF0EF063EF0EF064EF9D
:101CC4000EF027802750D8B46AEF0EF06CEF0EF0B8
:101CD40081EF0EF02728D8A472EF0EF074EF0EF007
:101CE4007CEF0EF0000E136E000E146E000E156ED7
:101CF400000E166E158E000E166E89EF0EF0000E95
:101D0400136E000E146E000E156E000E166E135038
:101D1400141015101610D8A492EF0EF094EF0EF0D4
:101D2400ACEF0EF0000E0F6E000E106E000E116E72
:101D3400000E126E800E11127F0E12121F5012121C
:101D44000FC00FF010C010F011C011F012C012F04B
:101D5400EFEF0FF02650D8A4B2EF0EF0B4EF0EF070
:101D6400BEEF0EF0000E0F6E000E106E000E116E20
:101D7400000E126EEFEF0FF0275026C017F0186A0E
:101D8400175E000E185A7F0E1724206E000E1820BE
:101D9400216E0FC01BF010C01CF011C01DF012C04A
:101DA4001EF0000E0F6E000E106E000E116E000E6F
:101DB400126E000E226E000E236E000E246E000EB4
:101DC400256E000E276E1FEF0FF02750D8B4EDEFED
:101DD4000EF0EFEF0EF006EF0FF0D8901B361C3626
:101DE4001D361E36D8900F3610361136123625AEF3
:101DF400FEEF0EF000EF0FF001EF0FF00F80D89020
:101E0400223623362436253613501B5C14501C58B6
:101E140015501D5816501E58D8A013EF0FF015EF8B
:101E24000FF01EEF0FF0258C13501B5E14501C5A3C
:101E340015501D5A16501E5A272A190E276425EFCD
:101E44000FF027EF0FF0E7EF0EF01B501C101D10E2
:101E54001E10D8B430EF0FF032EF0FF04AEF0FF04E
:101E640022804AEF0FF0D8900F3610361136123612
:101E740025AE3FEF0FF041EF0FF042EF0FF00F8070
:101E8400D89022362336243625362006D8A02106BB
:101E940011AE4FEF0FF051EF0FF035EF0FF0000ED2
:101EA400276E25AE58EF0FF05AEF0FF07EEF0FF0CC
:101EB400FF0E2214176EFF0E2314186EFF0E241447
:101EC400196E7F0E25141A6E1750181019101A1057
:101ED400D8B46FEF0FF071EF0FF075EF0FF0010E44
:101EE400276E7EEF0FF00FA07AEF0FF07CEF0FF06C
:101EF4007EEF0FF071EF0FF02750D8B484EF0FF09E
:101F040086EF0FF0AAEF0FF0010E0F26000E10223D
:101F14001122122212A091EF0FF093EF0FF0AAEF0B
:101F24000FF00FC017F010C018F011C019F012C054
:101F34001AF01A341A3219321832173217C00FF045
:101F440018C010F019C011F01AC012F0204A212A4A
:101F540021BEB5EF0FF0215008E12028D8A0B5EF3D
:101F64000FF0B7EF0FF0C2EF0FF0000E216E2068F4
:101F7400000E0F6E000E106E000E116E000E126E2B
:101F840021BECFEF0FF0215006E12004D8B0CDEFF1
:101F94000FF0CFEF0FF0DDEF0FF0000E216E000E0B
:101FA400206E000E0F6E000E106E000E116E000EED
:101FB400126E000E1F6E20C026F026A0E4EF0FF074
:101FC400E6EF0FF0E9EF0FF0118EEAEF0FF0119E3C
:101FD400D8902630126EA0EF0EF012000001746F3C
:101FE40000017451D8B4F9EF0FF0FBEF0FF01DEFBF
:101FF40010F06FBF02EF10F000EF10F01DEF10F0C3
:102004006CC070F06DC071F06EC072F06FC073F090
:10201400701F711F721F731F702B000E71237223A8
:10202400732370C076F071C077F072C078F073C01B
:1020340079F025EF10F06CC076F06DC077F06EC0CB
:1020440078F06FC079F06C516D116E116F11D8A4D6
:102054002EEF10F030EF10F03AEF10F0000E6C6F2E
:10206400000E6D6F000E6E6F000E6F6FCBEF10F0F1
:10207400960E756F44EF10F0752BD8907933783342
:1020840077337633000E7615706F000E7715716F07
:10209400000E7815726FFE0E7915736F7051711101
:1020A40072117311D8A459EF10F05BEF10F03EEFEA
:1020B40010F069EF10F0752B010E7627000E7723D0
:1020C40078237923D8907933783377337633000EB5
:1020D4007615706F000E7715716F000E7815726F9C
:1020E400FF0E7915736F7051711172117311D8A4A9
:1020F4007EEF10F080EF10F05DEF10F088EF10F03D
:102104007507D890763777377837793778BF8DEF7A
:1021140010F08FEF10F097EF10F0020E756195EF4D
:1021240010F097EF10F082EF10F075B19CEF10F003
:102134009EEF10F09FEF10F0789FD890753375C024
:1021440070F0716B726B736B70C073F0726B716B48
:10215400706B7051761371517713725178137351F8
:1021640079137451D8B4B9EF10F0BBEF10F0C3EF8A
:1021740010F06FBFC2EF10F0C0EF10F0C3EF10F01B
:10218400798F76C06CF077C06DF078C06EF079C04E
:102194006FF01200096E0950D8B4D3EF10F0D5EFE8
:1021A40010F0F7EF10F004BEDCEF10F0DAEF10F0EF
:1021B400F7EF10F001C005F002C006F003C007F00D
:1021C40004C008F0051E061E071E081E052A000E80
:1021D40006220722082205C00BF006C00CF007C037
:1021E4000DF008C00EF0FFEF10F001C00BF002C0BC
:1021F4000CF003C00DF004C00EF0015002100310E7
:102204000410D8A408EF11F00AEF11F014EF11F044
:10221400000E016E000E026E000E036E000E046EC0
:10222400A5EF11F0960E0A6E1EEF11F00A2AD8904F
:102234000E320D320C320B32000E0B14056E000EF2
:102244000C14066E000E0D14076EFE0E0E14086EAE
:102254000550061007100810D8A433EF11F035EF1D
:1022640011F018EF11F043EF11F00A2A010E0B26BA
:10227400000E0C220D220E22D8900E320D320C329A
:102284000B32000E0B14056E000E0C14066E000EBD
:102294000D14076EFF0E0E14086E0550061007107D
:1022A4000810D8A458EF11F05AEF11F037EF11F0DD
:1022B40062EF11F00A06D8900B360C360D360E3646
:1022C4000DBE67EF11F069EF11F071EF11F0020E1E
:1022D4000A606FEF11F071EF11F05CEF11F00AB0CA
:1022E40076EF11F078EF11F079EF11F00D9ED890A0
:1022F4000A320AC005F0066A076A086A05C008F0CF
:10230400076A066A056A05500B1206500C1207503C
:102314000D1208500E120950D8B493EF11F095EF36
:1023240011F09DEF11F004BE9CEF11F09AEF11F043
:102334009DEF11F00E8E0BC001F00CC002F00DC029
:1023440003F00EC004F0120000017551D96EDA6A70
:10235400DFCFF6FF100EF76EF86A0800F550250A75
:10236400D8A4B7EF11F0B9EF11F051EF12F0755195
:10237400D96EDA6ADF2A000EDA6F000ED96FD9C07F
:102384005DF0DB69DC697551D96EDA6ADF507C6F08
:102394007CC0F6FF100EF76EF86A0800F550750A57
:1023A400D8A4D7EF11F0D9EF11F04AEF12F076511B
:1023B400D96EDA6A020EDF26DF5CD96EDA6ADECF06
:1023C40078F0DECF79F07551D96EDA6A7C29DF6E48
:1023D4003DEF12F0200E7D6F7D077D51B90FD96E50
:1023E400DA6A78C06CF079C06DF0000E6F6F0A0E77
:1023F4006E6F5DEC17F000016C51300FDF6E78C02A
:102404006CF079C06DF0000E6F6F0A0E6E6FADEC5C
:1024140016F06CC078F06DC079F000017851791134
:10242400D8B417EF12F019EF12F032EF12F07D5119
:10243400D8A41FEF12F021EF12F0EEEF11F032EFFB
:1024440012F07D51B90FD96EDA6ADF50776F775188
:102454006C6F6D6B74C06EF061EC15F000017D2B38
:10246400200E7D19D8A439EF12F03BEF12F023EFC0
:1024740012F063EF12F07CC0F6FF100EF76EF86AEC
:102484000800F550750AD8B4ECEF11F04AEF12F0D9
:1024940000017551D96EDA6ADF2A63EF12F07551C3
:1024A400D96EDA6ADFCFF6FF100EF76EF86A08000D
:1024B400F5506C6F6D6B74C06EF061EC15F04AEF03
:1024C40012F012000A50D96EDA6ADFCFF6FF100E4E
:1024D400F76EF86A0800F550250AD8A474EF12F0D4
:1024E40076EF12F00BEF13F00A50D96EDA6ADF2A96
:1024F400000E0001DA6F000ED96FD9C05DF0DB6900
:10250400DC690A50D96EDA6ADF50116E11C0F6FF29
:10251400100EF76EF86A0800F550750AD8A495EF06
:1025240012F097EF12F005EF13F00B50D96EDA6A40
:10253400020EDF26DF5CD96EDA6ADECF0DF0DECF65
:102544000EF00A50D96EDA6A1128DF6EF8EF12F035
:10255400200E126E12061250B90FD96EDA6A0DC02F
:1025640001F00EC002F0000E046E0A0E036EC2ECFF
:1025740017F00150300FDF6E0DC001F00EC002F0F5
:10258400000E046E0A0E036E23EC17F001C00DF06A
:1025940002C00EF00D500E10D8B4D3EF12F0D5EFE8
:1025A40012F0EDEF12F01250D8A4DBEF12F0DDEFD1
:1025B40012F0ACEF12F0EDEF12F01250B90FD96E29
:1025C400DA6ADF500C6E0C50016E026A09C003F027
:1025D400BFEC15F0122A200E1218D8A4F4EF12F052
:1025E400F6EF12F0DFEF12F01DEF13F011C0F6FF5B
:1025F400100EF76EF86A0800F550750AD8B4AAEF01
:1026040012F005EF13F00A50D96EDA6ADF2A1DEFD3
:1026140013F00A50D96EDA6ADFCFF6FF100EF76EA8
:10262400F86A0800F550016E026A09C003F0BFECB5
:1026340015F005EF13F01200C5EC19F09494F28E26
:10264400F28C1CEC16F0310E0001716F7151D8A49C
:10265400100E726F90EC17F0090E0001B76F1E0E8A
:10266400B66FE40EE82EFED7B62FFCD7B72FFAD7F5
:102674000000010E70EC16F09FEC19F0B60E00018C
:102684006C6F280E6D6FD7EC19F0000EF4EC17F098
:102694006CC006F16DC007F106C1B6F007C1B7F012
:1026A400060E0001B86FD890B733B633B82F55EF84
:1026B40013F0B6C008F1B7C009F1000E976F000E11
:1026C400986FFA0E996F430E9A6F000E7E6FC00ECC
:1026D4007F6F7F0E806F440E816F08C16CF009C15B
:1026E4006DF06E6B6F6B000EF0EC0FF06CC07AF057
:1026F4006DC07BF06EC07CF06FC07DF055EC0CF0CB
:102704007AC093F07BC094F07CC095F07DC096F0C5
:102714002AEC08F093C0ACF094C0ADF095C0AEF0D4
:1027240096C0AFF0D7EC13F0ACC00AF1ADC00BF11A
:10273400000E0001826F010E836F4F0E846F0AC179
:1027440085F00BC186F080EC18F04A0E0001716F21
:102754007151D8A4100E726F90EC17F0000E0001A6
:10276400716F010E726F90EC17F0150E0001B76FC8
:102774004B0EB66FBE0EE82EFED7B62FFCD7B72F82
:10278400FAD70000010E70EC16F0030E0001B76FCB
:10279400080EB66F770EE82EFED7B62FFCD7B72FEC
:1027A400FAD747EF13F039EF00F00001AE35AF353B
:1027B400B56FB551D8A4E1EF13F0E3EF13F0EDEFEB
:1027C40013F0000EAC6F000EAD6F000EAE6F000E76
:1027D400AF6F5AEF14F0ACC0B0F0ADC0B1F0AEC002
:1027E400B2F0AFC0B3F0200EFDEF13F0D890B333C6
:1027F400B233B133B033E82EF8EF13F0B051B46F05
:10280400AE8FFF0EAC17FF0EAD17FF0EAE17000E06
:10281400AF17960EB55FB5BF14EF14F012EF14F0B6
:102824002AEF14F0B551800A970FD8B01CEF14F0BA
:102834001EEF14F020EF14F0E3EF13F0D890AF3351
:10284400AE33AD33AC33B53F20EF14F042EF14F0A8
:102854001F0EB56530EF14F032EF14F03AEF14F0B8
:10286400E3EF13F0D890AC37AD37AE37AF37B507D9
:10287400B551D8A440EF14F042EF14F034EF14F043
:10288400B451D8B448EF14F04AEF14F052EF14F0F6
:10289400AF1FAE1FAD1FAC6D000EAD23AE23AF2333
:1028A400ACC0ACF0ADC0ADF0AEC0AEF0AFC0AFF0F8
:1028B40012005B4A5C2A5CBE69EF14F05C5009E1CB
:1028C4000A0E5B5CD8A069EF14F06BEF14F0DDEF37
:1028D40014F0000E5C6E000E5B6E000E5EEC18F0E1
:1028E40001C054F002C055F054C04BF055C04CF038
:1028F400060E4D6ED8904C324B324D2E7CEF14F0B8
:102904004BC056F04CC057F0000E2C6E000E2D6ECE
:10291400FA0E2E6E430E2F6E000E136EC00E146E42
:102924007F0E156E440E166E56C001F057C002F0AD
:10293400036A046A000ECCEC10F001C00FF002C070
:1029440010F003C011F004C012F023EC0EF00FC01D
:1029540028F010C029F011C02AF012C02BF040EC6E
:102964000AF028C041F029C042F02AC043F02BC02D
:1029740044F0DEEC14F041C058F042C059F058C0A5
:102984005AF04E0E176E186A3F0E196E5AC01AF09E
:102994001B6ADEEC18F04E0E026E19EC19F0030EF1
:1029A4004C6E080E4B6E770EE82EFED74B2EFCD7DE
:1029B4004C2EFAD700001200433444344A6E4A5075
:1029C400D8A4E7EF14F0E9EF14F0F3EF14F0000EDD
:1029D400416E000E426E000E436E000E446E60EFB8
:1029E40015F041C045F042C046F043C047F044C032
:1029F40048F0200E03EF15F0D890483247324632A3
:102A04004532E82EFEEF14F04550496E438EFF0E1A
:102A14004116FF0E4216FF0E4316000E4416960E84
:102A24004A5E4ABE1AEF15F018EF15F030EF15F0B4
:102A34004A50800A970FD8B022EF15F024EF15F012
:102A440026EF15F0E9EF14F0D890443243324232C5
:102A540041324A3E26EF15F048EF15F01F0E4A6446
:102A640036EF15F038EF15F040EF15F0E9EF14F0FC
:102A7400D89041364236433644364A064A50D8A4A2
:102A840046EF15F048EF15F03AEF15F04950D8B479
:102A94004EEF15F050EF15F058EF15F0441E431E9D
:102AA400421E416C000E42224322442241C041F0A6
:102AB40042C042F043C043F044C044F0120000015D
:102AC4006E51D8B468EF15F06AEF15F072EF15F097
:102AD4006E51D8A470EF15F072EF15F077EF15F082
:102AE4006C51F4EC19F0BEEF15F06E51D96EDA6A40
:102AF4000A0ED926DE50DE10D8B483EF15F085EF28
:102B040015F09EEF15F06E51D96EDA6A0A0ED926C9
:102B14006E51E16EE26A030EE126DE50E65CE65099
:102B2400800A736FDE50800A7359D8B09CEF15F099
:102B34009EEF15F0BEEF15F06E51D96EDA6A030EF2
:102B4400D926DECF6FF0DDCF70F06E51D96EDA6A20
:102B5400DECF71F0DDCF72F06F517125D96E7051F7
:102B64007221DA6E6CC0DFFF6E51D96EDA6A030E21
:102B7400D926DE2A000EDD2212000350D8B4C5EF98
:102B840015F0C7EF15F0CFEF15F00350D8A4CDEF33
:102B940015F0CFEF15F0D4EF15F00150F5EC19F066
:102BA4001BEF16F00350D96EDA6A0A0ED926DE50EE
:102BB400DE10D8B4E0EF15F0E2EF15F0FBEF15F0FE
:102BC4000350D96EDA6A0A0ED9260350E16EE26A1E
:102BD400030EE126DE50E65CE650800A086EDE5005
:102BE400800A0858D8B0F9EF15F0FBEF15F01BEF89
:102BF40016F00350D96EDA6A030ED926DECF04F03C
:102C0400DDCF05F00350D96EDA6ADECF06F0DDCFF2
:102C140007F004500624D96E05500720DA6E01C06F
:102C2400DFFF0350D96EDA6A030ED926DE2A000EBE
:102C3400DD2212004DEC19F0680E0001716FE40EF4
:102C4400E82EFED7712FFCD70000330E70EC16F07F
:102C54001A0E0001716FF80EE82EFED7712FFCD703
:102C64000000320E70EC16F01A0E0001716FF80EAF
:102C7400E82EFED7712FFCD70000280E70EC16F05A
:102C84001A0E0001716FF80EE82EFED7712FFCD7D3
:102C940000000C0E70EC16F01A0E0001716FF80EA5
:102CA400E82EFED7712FFCD70000060E70EC16F04C
:102CB4001A0E0001716FF80EE82EFED7712FFCD7A3
:102CC4000000010E70EC16F01A0E0001716FF80E80
:102CD400E82EFED7712FFCD7000012000001706FA0
:102CE40000017051F00B04096D6F090E63EC19F0CB
:102CF40000F000F000F000F000017051F00B6D6F77
:102D0400090E63EC19F00B0E00016F6F620EE82ED2
:102D1400FED76F2FFCD7000000017039F00BF00BC9
:102D240004096D6F090E63EC19F000F000F000F077
:102D340000F000017039F00BF00B6D6F090E63ECBD
:102D440019F00B0E00016F6F620EE82EFED76F2F85
:102D5400FCD700001200000E0001726F000E716FAC
:102D64006E516F11D8B4B9EF16F0BBEF16F0E3EF64
:102D740016F0010E706FC3EF16F0D8906E376F37F0
:102D8400702B6FAFC8EF16F0CAEF16F0BFEF16F056
:102D9400D890713772376E516C5D6F516D59D8A0F0
:102DA400D6EF16F0D8EF16F0DDEF16F06E516C5F2B
:102DB4006F516D5B7181D8906F336E33702FCAEF92
:102DC40016F071C06CF072C06DF012000001706FEB
:102DD40000017051F00B05096D6F090E63EC19F0D9
:102DE40000F000F000F000F000017051F00B010958
:102DF4006D6F090E63EC19F0A00E00F000F0E82EE0
:102E0400FCD700017039F00BF00B05096D6F090E4A
:102E140063EC19F000F000F000F000F000017039EC
:102E2400F00BF00B01096D6F090E63EC19F00B0E3A
:102E340000016F6F620EE82EFED76F2FFCD70000E3
:102E44001200000E076E000E066E03500410D8B474
:102E54002EEF17F030EF17F058EF17F0010E056E54
:102E640038EF17F0D89003360436052A04AE3DEF48
:102E740017F03FEF17F034EF17F0D8900636073607
:102E84000350015C04500258D8A04BEF17F04DEFEB
:102E940017F052EF17F00350015E0450025A0680F7
:102EA400D89004320332052E3FEF17F006C001F02C
:102EB40007C002F0120000016E516F11D8B465EF23
:102EC40017F067EF17F08BEF17F0010E706F6FEFCD
:102ED40017F0D8906E376F37702B6FAF74EF17F011
:102EE40076EF17F06BEF17F06E516C5D6F516D5903
:102EF400D8A07FEF17F081EF17F085EF17F06E5130
:102F04006C5F6F516D5BD8906F336E33702F76EFBB
:102F140017F06CC06CF06DC06DF01200A8EF17F0E4
:102F240071C0F6FF72C0F7FF000EF86E0F0EF76463
:102F340003D00800F55005D0F6CFE9FFF7CFEAFF3C
:102F4400EF50E8EC16F00001714B722B71C0F6FFE4
:102F540072C0F7FF000EF86E0F0EF76403D008007E
:102F6400F55005D0F6CFE9FFF7CFEAFFEF5000099F
:102F7400D8A4BFEF17F0C1EF17F092EF17F01200CB
:102F840003500410D8B4C9EF17F0CBEF17F0EFEFEC
:102F940017F0010E056ED3EF17F0D8900336043600
:102FA400052A04AED8EF17F0DAEF17F0CFEF17F0D9
:102FB4000350015C04500258D8A0E3EF17F0E5EF8A
:102FC40017F0E9EF17F00350015E0450025AD8904D
:102FD40004320332052EDAEF17F001C001F002C00B
:102FE40002F012000001706F70C06EF000016E47B5
:102FF4006E47C2506E19C30B6E19C26EC2800A0EA0
:10300400E82EFED700F000F0C282C2B20CEF18F036
:103014000EEF18F007EF18F0C45000016F6F6E6BDD
:10302400C3506E256C6F000E6F216D6F1200F2A4F9
:103034001EEF18F020EF18F03BEF18F0F294C30ED7
:10304400D76E270ED66E0001DD51DE11D8B42DEFF8
:1030540018F02FEF18F03BEF18F002D83BEF18F000
:103064000500FA6EDD51FD6EDE51FE6EFF6AFA5008
:10307400120012007FC081F049EF18F07EC074F096
:10308400810E0001756F80C076F0A6EC11F081C04E
:10309400F6FF100EF76EF86A0800F5500009D8A480
:1030A40056EF18F058EF18F040EF18F0000E00013A
:1030B4007F6F000E7E6F1200056E05C003F003469D
:1030C4000346C2500318C30B0318C26EC2800A0E13
:1030D400E82EFED700F000F0C282C2B274EF18F0FE
:1030E40076EF18F06FEF18F0C450046E036AC35003
:1030F4000324016E000E0420026E1200850E0001EE
:10310400876F82C088F083C089F0000E8C6F000E38
:103114008B6F000E936F000E926F880E7E6F84C0CB
:103124007FF0870E806F3CEC18F000018B518225F4
:10313400D96E8C518321DA6EDF6A120014C016F046
:10314400ACEF18F013C009F0160E0A6E15C00BF0A0
:1031540064EC12F016C0F6FF100EF76EF86A080061
:10316400F5500009D8A4B9EF18F0BBEF18F0A4EF9C
:1031740018F0000E146E000E136E1200480EB86E96
:10318400900EAB6E260EAC6EA00EAF6E010EB06E3E
:10319400000E00016C6F000E6D6F82EC19F0000ED2
:1031A40000016C6F000E6D6F73EC19F0000E0001DE
:1031B400E46F000EE36F12001A0E1C6E17C01DF0B0
:1031C40018C01EF0000E216E000E206E000E286E38
:1031D400000E276E1D0E136E19C014F01C0E156E12
:1031E400A0EC18F020501724D96E21501820DA6E64
:1031F400DF6A1200D09EF292F18C000E00016C6F17
:10320400000E6D6FE6EC19F0F090F18A000E0001EB
:103214006C6F000E6D6FE1EC19F0F092F188000E06
:1032240000016C6F000E6D6FDCEC19F0120029EFD9
:1032340019F09EA820EF19F022EF19F01BEF19F0F6
:103244000250D96EDA6ADF50F0EC19F0022A02500B
:10325400D96EDA6ADF50D8A432EF19F034EF19F0DE
:103264001BEF19F01200000E896E000E8A6E000E1C
:103274008B6E000E8C6E000E8D6E92689368BF0E7E
:10328400946E9568070E966E1F0E7F6E7C68000E16
:103294007D6EF28612009590D0EC19F0FF0E0001BD
:1032A4006D6F0A0E63EC19F0000E00016D6F000ED5
:1032B40063EC19F0FF0E00016D6F060E63EC19F05C
:1032C400120000016E6F8C90400EB9EC19F00001F1
:1032D4006E51B9EC19F000016D51B9EC19F08C8004
:1032E400120000016C516D11D8B47BEF19F07DEF21
:1032F40019F081EF19F06CC0DFF06DC0E0F012003E
:1033040000016C516D11D8B48AEF19F08CEF19F0EB
:1033140090EF19F06CC0E1F06DC0E2F0120000EE25
:10332400B9F0320EEE6AE806FDE15D6A5C6A5B6A3A
:103334005E905E9200011EEF13F0D59ED596D59A4D
:10334400070ED512D59CC30ED76E270ED66EF294F7
:10335400F28AD58E1200000EC16E000EC06E000EF1
:10336400C36E000EC46E030EC26E9E9C120000015A
:103374006C6F6CC0C9FFC7A0C2EF19F0C4EF19F09D
:10338400BDEF19F01200EBEC19F035EC19F0ADECCF
:1033940019F0C0EC18F0FCEC18F012009496949A12
:1033A400200EC66E000EC76E12006CC0DDF06DC03C
:1033B400DEF012006CC0E5F06DC0E6F012006CC0E7
:1033C400E7F06DC0E8F012006CC0E9F06DC0EAF0FF
:1033D4001200700ED36E000E9B6E1200016E01C0BF
:0833E400ADFF120012001200FF
:020000040030CA
:0E000000FF081F1EFF8B85FF0FC00FE00F4093
:00000001FF
